:020000040800F2
:1000000000000520491A0008651900086719000852
:10001000691900086B1900086D190008000000003C
:10002000000000000000000000000000E1C7000820
:100030006F1900080000000081C80008E5C800082A
:10004000991A0008991A0008991A0008991A0008C4
:10005000991A0008991A0008991A0008991A0008B4
:10006000991A0008991A0008991A0008991A0008A4
:10007000991A0008991A0008991A0008991A000894
:10008000991A0008991A0008991A0008991A000884
:10009000991A0008991A0008991A0008991A000874
:1000A000991A0008991A0008991A0008991A000864
:1000B000991A0008991A0008991A0008991A000854
:1000C000991A0008991A0008991A0008991A000844
:1000D000991A0008991A0008991A0008991A000834
:1000E000991A0008991A0008991A0008991A000824
:1000F000991A0008991A0008991A0008991A000814
:10010000991A0008991A0008991A0008991A000803
:10011000991A0008991A000871190008991A00081C
:10012000991A0008991A0008991A0008991A0008E3
:10013000991A0008991A0008991A0008991A0008D3
:10014000991A0008991A0008991A0008991A0008C3
:10015000991A0008991A0008991A0008991A0008B3
:10016000991A0008991A0008991A0008991A0008A3
:10017000991A0008991A0008991A0008000000004E
:10018000991A0008991A0008991A0008991A000883
:10019000991A0008991A0008991A0008991A000873
:1001A0007D190008991A000889190008991A000891
:1001B000991A0008991A0008991A0008991A000853
:0801C000991A0008991A0008C1
:1001D00010B5054C237833B9044B13B10448AFF381
:1001E00000800123237010BD2401002000000000C6
:1001F000F843030808B5034B1BB103490348AFF3A9
:10020000008008BD0000000028010020F84303081A
:1002100001F0FF01102A2BDB10F0070F08D010F8B7
:10022000013B013A8B422DD010F0070F42B3F6D1BB
:10023000F0B441EA012141EA014122F007047FF0D4
:1002400000070023F0E80256083C85EA010586EA2B
:10025000010685FA47F5A3FA87F586FA47F6A5FA67
:1002600087F68EB9EED1F0BC01F0FF0102F0070273
:1002700032B110F8013B013A83EA010313B1F8D11E
:100280000020704701387047002D06BF35460338FF
:10029000073815F0010F07D1013015F4807F02BF38
:1002A000013015F4C03F0130F0BC0138704700BF89
:1002B00081F0004102E000BF83F0004330B54FEA17
:1002C00041044FEA430594EA050F08BF90EA020F84
:1002D0001FBF54EA000C55EA020C7FEA645C7FEA17
:1002E000655C00F0E2804FEA5454D4EB5555B8BF3A
:1002F0006D420CDD2C4480EA020281EA030382EAAB
:10030000000083EA010180EA020281EA0303362D3C
:1003100088BF30BD11F0004F4FEA01314FF4801C0F
:100320004CEA113102D0404261EB410113F0004F21
:100330004FEA03334CEA133302D0524263EB4303D8
:1003400094EA050F00F0A780A4F10104D5F1200E76
:100350000DDB02FA0EFC22FA05F2801841F10001D1
:1003600003FA0EF2801843FA05F359410EE0A5F1A5
:1003700020050EF1200E012A03FA0EFC28BF4CF0D6
:10038000020C43FA05F3C01851EBE37101F000458C
:1003900007D54FF0000EDCF1000C7EEB00006EEB99
:1003A0000101B1F5801F1BD3B1F5001F0CD3490823
:1003B0005FEA30004FEA3C0C04F101044FEA44527A
:1003C00012F5800F80F09A80BCF1004F08BF5FEA01
:1003D000500C50F1000041EB045141EA050130BDE1
:1003E0005FEA4C0C404141EB0101013C28BFB1F5F3
:1003F000801FE9D291F0000F04BF01460020B1FA3E
:1004000081F308BF2033A3F10B03B3F120020CDA10
:100410000C3208DD02F1140CC2F10C0201FA0CF0EE
:1004200021FA02F10CE002F11402D8BFC2F1200C53
:1004300001FA02F120FA0CFCDCBF41EA0C01904009
:10044000E41AA2BF01EB0451294330BD6FEA040452
:100450001F3C1CDA0C340EDC04F11404C4F120023D
:1004600020FA04F001FA02F340EA030021FA04F34F
:1004700045EA030130BDC4F10C04C4F1200220FAA6
:1004800002F001FA04F340EA0300294630BD21FAE4
:1004900004F0294630BD94F0000F83F4801306BFAA
:1004A00081F480110134013D4EE77FEA645C18BF9E
:1004B0007FEA655C29D094EA050F08BF90EA020F35
:1004C00005D054EA000C04BF1946104630BD91EA2D
:1004D000030F1EBF0021002030BD5FEA545C05D130
:1004E0004000494128BF41F0004130BD14F580046F
:1004F0003CBF01F5801130BD01F0004545F0FE41E3
:1005000041F470014FF0000030BD7FEA645C1ABF17
:10051000194610467FEA655C1CBF0B46024650EA4E
:10052000013406BF52EA033591EA030F41F400217A
:1005300030BD00BF90F0000F04BF0021704730B500
:100540004FF4806404F132044FF000054FF00001D5
:1005500050E700BF90F0000F04BF0021704730B596
:100560004FF4806404F1320410F0004548BF40426B
:100570004FF000013EE700BF42004FEAE2014FEAC0
:1005800031014FEA02701FBF12F07F4393F07F4F9B
:1005900081F06051704732F07F4208BF704793F09E
:1005A0007F4F04BF41F40021704730B54FF46074B1
:1005B00001F0004521F000411CE700BF50EA0102B4
:1005C00008BF704730B54FF000050AE050EA01025D
:1005D00008BF704730B511F0004502D5404261EBCD
:1005E00041014FF4806404F132045FEA915C3FF40E
:1005F000D8AE4FF003025FEADC0C18BF03325FEAAB
:10060000DC0C18BF033202EBDC02C2F1200300FA5B
:1006100003FC20FA02F001FA03FE40EA0E0021FA80
:1006200002F11444BDE600BF70B54FF0FF0C4CF46E
:10063000E06C1CEA11541DBF1CEA135594EA0C0F20
:1006400095EA0C0F00F0DEF82C4481EA030621EA5B
:100650004C5123EA4C5350EA013518BF52EA033596
:1006600041F4801143F4801338D0A0FB02CE4FF048
:100670000005E1FB02E506F00042E0FB03E54FF078
:100680000006E1FB03569CF0000F18BF4EF0010E70
:10069000A4F1FF04B6F5007F64F5407404D25FEA6C
:1006A0004E0E6D4146EB060642EAC62141EA55511F
:1006B0004FEAC52040EA5E504FEACE2EB4F1FD0C61
:1006C00088BFBCF5E06F1ED8BEF1004F08BF5FEADF
:1006D000500E50F1000041EB045170BD06F0004691
:1006E00046EA010140EA020081EA0301B4EB5C043E
:1006F000C2BFD4EB0C0541EA045170BD41F4801136
:100700004FF0000E013C00F3AB8014F1360FDEBF5A
:10071000002001F0004170BDC4F10004203C35DA36
:100720000C341BDC04F11404C4F1200500FA05F3B9
:1007300020FA04F001FA05F240EA020001F000425A
:1007400021F0004110EBD37021FA04F642EB0601D0
:100750005EEA430E08BF20EAD37070BDC4F10C04FA
:10076000C4F1200500FA04F320FA05F001FA04F2BE
:1007700040EA020001F0004110EBD37041F10001AA
:100780005EEA430E08BF20EAD37070BDC4F12005B5
:1007900000FA05F24EEA020E20FA04F301FA05F21D
:1007A00043EA020321FA04F001F0004121FA04F2C5
:1007B00020EA020000EBD3705EEA430E08BF20EA95
:1007C000D37070BD94F0000F0FD101F000464000CF
:1007D00041EB010111F4801F08BF013CF7D041EA51
:1007E000060195F0000F18BF704703F00046520055
:1007F00043EB030313F4801F08BF013DF7D043EA26
:100800000603704794EA0C0F0CEA135518BF95EADB
:100810000C0F0CD050EA410618BF52EA4306D1D162
:1008200081EA030101F000414FF0000070BD50EA81
:10083000410606BF1046194652EA430619D094EA0B
:100840000C0F02D150EA013613D195EA0C0F05D1F5
:1008500052EA03361CBF104619460AD181EA030149
:1008600001F0004141F0FE4141F470014FF0000001
:1008700070BD41F0FE4141F4780170BD70B54FF09C
:10088000FF0C4CF4E06C1CEA11541DBF1CEA13551C
:1008900094EA0C0F95EA0C0F00F0A7F8A4EB0504FE
:1008A00081EA030E52EA03354FEA013100F08880F5
:1008B0004FEA03334FF0805545EA131343EA1263BE
:1008C0004FEA022245EA111545EA10654FEA002673
:1008D0000EF000419D4208BF964244F1FD0404F52C
:1008E000407402D25B084FEA3202B61A65EB030588
:1008F0005B084FEA32024FF480104FF4002CB6EB45
:10090000020E75EB030E22BFB61A754640EA0C00C4
:100910005B084FEA3202B6EB020E75EB030E22BF04
:10092000B61A754640EA5C005B084FEA3202B6EB45
:10093000020E75EB030E22BFB61A754640EA9C0004
:100940005B084FEA3202B6EB020E75EB030E22BFD4
:10095000B61A754640EADC0055EA060E18D04FEA92
:10096000051545EA16754FEA06164FEAC30343EA32
:1009700052734FEAC2025FEA1C1CC0D111F4801FFF
:100980000BD141EA00014FF000004FF0004CB6E7F8
:1009900011F4801F04BF01430020B4F1FD0C88BF97
:1009A000BCF5E06F3FF6AFAEB5EB030C04BFB6EBA2
:1009B000020C5FEA500C50F1000041EB045170BD95
:1009C0000EF0004E4EEA113114EB5C04C2BFD4EBC2
:1009D0000C0541EA045170BD41F480114FF0000E46
:1009E000013C90E645EA060E8DE60CEA135594EAC2
:1009F0000C0F08BF95EA0C0F3FF43BAF94EA0C0FC5
:100A00000AD150EA01347FF434AF95EA0C0F7FF439
:100A100025AF104619462CE795EA0C0F06D152EA8D
:100A200003353FF4FDAE1046194622E750EA410671
:100A300018BF52EA43067FF4C5AE50EA41047FF482
:100A40000DAF52EA43057FF4EBAE12E74FEA4102E5
:100A5000B2F1E04324BFB3F5001CDCF1FE5C0DD91C
:100A600001F0004C4FEAC0024CEA5070B2F1004F66
:100A700040EB830008BF20F00100704711F0804F69
:100A800021D113F13872BCBF01F00040704741F42E
:100A900080114FEA5252C2F11802C2F1200C10FA32
:100AA0000CF320FA02F018BF40F001004FEAC12316
:100AB0004FEAD32303FA0CFC40EA0C0023FA02F3BA
:100AC0004FEA4303CCE77FEA625307D150EA013390
:100AD0001EBF4FF0FE4040F44000704701F0004060
:100AE00040F0FE4040F40000704700BF7BB972B98F
:100AF0000029BEBF00204FF0004106E008BF0028DB
:100B00001CBF6FF000414FF0FF3000F0B5B9ADF100
:100B1000080C6DE904CE002909DB002B1ADB00F07C
:100B20004DF8DDF804E0DDE9022304B070474042EF
:100B300061EB4101002B1BDB00F040F8DDF804E025
:100B4000DDE9022304B0404261EB4101524263EB14
:100B500043037047524263EB430300F02FF8DDF884
:100B600004E0DDE9022304B0404261EB410170473B
:100B7000524263EB430300F021F8DDF804E0DDE9C5
:100B8000022304B0524263EB4303704753B94AB99E
:100B9000002908BF00281CBF4FF0FF314FF0FF3085
:100BA00000F06AB9ADF1080C6DE904CE00F006F86A
:100BB000DDF804E0DDE9022304B070472DE9F047D9
:100BC000089D0C46002B4ED194468C458646B2FAC1
:100BD00082F262D94AB1C2F12003914020FA03F3B4
:100BE0000CFA02FC194300FA02FE4FEA1C471FFAF6
:100BF0008CF6B1FBF7F44FEA1E4307FB141143EAEE
:100C0000014304FB06F199420AD91CEB030304F1EA
:100C1000FF3080F01281994240F20F81023C634420
:100C2000591A1FFA8EF3B1FBF7F007FB101143EAD4
:100C3000014300FB06F69E420AD91CEB030300F1B8
:100C4000FF3180F0FC809E4240F2F980634402381C
:100C50009B1B40EA044000211DB1D3400022C5E99E
:100C60000032BDE8F0878B4205D90DB1C5E900011E
:100C700000210846F5E7B3FA83F1002946D1A342E3
:100C800002D39042C0F0F080861A64EB0303012087
:100C9000002DE6D0C5E90063E3E7002A40F090802C
:100CA000A1EB0C044FEA1C481FFA8CF70121B4FB9E
:100CB000F8F64FEA1E4308FB164443EA044307FBD9
:100CC00006F0984208D91CEB030306F1FF3402D268
:100CD000984200F2CD8026461C1A1FFA8EF3B4FB10
:100CE000F8F008FB104443EA044300FB07F79F4277
:100CF00008D91CEB030300F1FF3402D29F4200F23B
:100D0000B0802046DB1B40EA0640A5E7C1F1200683
:100D10008B4022FA06F71F4320FA06FC04FA01F37F
:100D200043EA0C03F44000FA01F8380C4FEA134987
:100D3000B4FBF0FE1FFA87FC00FB1E4449EA0444A2
:100D40000EFB0CF9A14502FA01F20AD93C190EF189
:100D5000FF3A80F08480A14540F28180AEF1020E1E
:100D60003C44A4EB09041FFA83F9B4FBF0F300FB45
:100D7000134449EA044403FB0CFCA44507D93C197D
:100D800003F1FF3067D2A44565D9023B3C4443EAF6
:100D90000E40A0FB0293A4EB0C049C42CE469C4662
:100DA00051D34ED055B1B8EB0E0364EB0C0404FAEA
:100DB00006F6CB401E43CC40C5E90064002150E755
:100DC000C2F1200320FA03F10CFA02FC24FA03F327
:100DD00094400C434FEA1C4800FA02FE1FFA8CF7BD
:100DE000B3FBF8F008FB1031230C43EA014300FB8E
:100DF00007F1994208D91CEB030300F1FF362CD20E
:100E000099422AD9023863445B1AA4B2B3FBF8F1C1
:100E100008FB113344EA034401FB07F3A34208D95A
:100E20001CEB040401F1FF3613D2A34211D902399D
:100E30006444E41A41EA004139E70446F0E6084612
:100E400006E7C845AED2B9EB020E63EB070C0138DA
:100E5000A8E73146EDE7034699E73046D4E7D646A2
:100E60007FE7634402384DE70646234608460FE70E
:100E7000023E634430E700BF704700BF01490020D5
:100E80000CF0ACBE451F000808B564200BF0BAF8A2
:100E9000FBE7000010B594B01022002102240AA83C
:100EA00032F06CFB1422002103A832F067FB1D4BCB
:100EB000192108A81A6C42F080521A641B6C03F0C6
:100EC00080530193019B184B1A6842F440421A6008
:100ED00001221B6803F440430293029B4FF48033CA
:100EE000CDE908234FF48003CDE90E434FF4D873C6
:100EF000CDE91244CDE910130AF04AF809F0E6FCF6
:100F00000F2300200721CDE903344FF4A053CDE98E
:100F100005034FF4805303A807930AF021FA14B095
:100F200010BD00BF00380240007000402DE980482D
:100F30009BB01022002101250DA84FF0104932F07E
:100F40001DFB002408F028FCC74B0DA8ADF8345059
:100F50001094CDE90E9308F03DFC17230DA88DF8F1
:100F600035508DF83C308DF8425008F033FC0420A9
:100F700008F020FCBFF34F8FBFF36F8FBB4AC2F85E
:100F80005042BFF34F8FBFF36F8F536943F4003369
:100F90005361BFF34F8FBFF36F8FC2F88440BFF32D
:100FA0004F8FD2F8803043F6E074C3F3C900C3F327
:100FB0004E335B0103EA0406014646EA81750139B6
:100FC000C2F86052F9D2203B13F1200FF2D1BFF3E7
:100FD0004F8F536943F480335361BFF34F8FBFF397
:100FE0006F8F08F03FFB0024FFF754FF142200210D
:100FF0000DA832F0C3FA9E4B10219E481A6B0127B0
:101000004FF010084FF0030B42F010024FF4805ADB
:10101000994D4FF004091A631A6B984E02F01002B2
:101020000292029A1A6B42F002021A631A6B02F0E1
:1010300002020392039A1A6B42F001021A631A6BBE
:1010400002F001020492049A1A6B42F040021A6301
:101050001A6B02F040020592059A1A6B42F4007274
:101060001A631A6B02F400720692069A1A6B42F027
:1010700008021A631A6B02F008020792079A1A6BA9
:1010800042F480621A631A6B02F480620892089A32
:101090001A6B42F020021A631A6B02F020020992C6
:1010A000099A1A6B42F480721A631A6B02F4807206
:1010B0000A920A9A1A6B42F080021A631A6B02F0C3
:1010C00080020B920B9A1A6B42F004021A63002200
:1010D0001B6B03F004030C930C9B08F0C7FE01226A
:1010E0000821674808F0C2FE01224FF4805165488C
:1010F00008F0BCFE0022C021634808F0B7FE0022C1
:101100004021624808F0B2FE0DA95A48CDE90D878A
:10111000CDE90F4B08F026FD08230DA95848CDE96D
:101120000D37CDE90F4408F01DFD0DA95548CDE957
:101130000DA7CDE90F4408F015FDC0220DA95248B6
:10114000CDE90D27CDE90F4B08F00CFD40220DA98C
:101150004E48CDE90D27CDE90F4B08F003FD4C4873
:101160004C49848001600762C0E9054408F05EFBD9
:1011700049492846C5E90014C5E90244C5E90A44BD
:10118000C5E90C4408F0EFFB39462846434D08F00A
:10119000A3FC40234FF4C07241493046B460F4616F
:1011A000B462C6E905324FF40062C6E9082A4FF07E
:1011B000020A0722C6E900140DA9CDF84CA0C6E921
:1011C0000398CDE90DA2CDE90F92CDE911BA0AF04D
:1011D0001DFC29464FF6FF7230460194C5E90078A0
:1011E000C5E902740AF032FC384608F05FFA294675
:1011F0004FF6FF723046C5E900A8C5E902740AF04F
:1012000025FC082329464FF6FF723046C5E900B891
:10121000C5E902340AF01AFC4FF40C734FF6FF7262
:10122000294601933046019BAF60EB60C5E9009809
:101230000AF00CFC40F22B7130461A4D0AF025FCE6
:101240004FF0204343F2D202642040F215261A6088
:1012500008F02CFA144B154A28462C62C5E90023E5
:10126000C5E9024724E000BF1B00000300ED00E0D9
:101270000038024000040240D80200205C01002037
:1012800000280240002002400008024000180240EE
:10129000180300200030024000B00240400100204E
:1012A000400100A08402002068474020005C00400C
:1012B000C5E90444C5E9064408F000FF2146284674
:1012C00009F01EF9214628463E4D09F03FF9342227
:1012D00021460DEB020032F051F93B4B282135201D
:1012E00040F2352C2C61AC8685F83640C5E90034D7
:1012F0000923C5E905130B23C5E9070340F21B13B6
:101300002846C5E9096340F21D13C5E90244C5E951
:101310000BC309F0C7F9FF214FF4806E4FF4F07250
:101320004FF4887328460D941893ADF864408DF8F7
:101330006640CDE912140521CDE914E14FF040419A
:10134000CDE90E24CDE9161222460DA9CDE9103AB9
:1013500009F073FA1D481E4B0462C0E90037C0E96A
:1013600002984FF4A0634FF01808C0E90644C0E9A2
:10137000048309F0C5FB07F0F5FF07F03BFF5C2095
:1013800008F0F8F900F05EFB00F088FB00F085FB48
:101390000AF0AAFD0F4A21460F480AF0DFFD0F4B65
:1013A0000F4A214618600F480AF0D8FD0E4B0F4A2D
:1013B000214618600E480AF0D1FD0E4B18600AF065
:1013C000ADFDFEE7DC010020006801409001002037
:1013D000001000A0BC440308890E0008580100203A
:1013E00098440308AB1A0008540100207444030811
:1013F00051350008500100200268034B9A4201D188
:1014000008F042B9704700BF00100040704700006C
:101410000D4B82B00F216FF001001A6C42F0805228
:101420001A641A6C02F080520092009A5A6C42F4CC
:1014300080425A6400225B6C03F480430193019B59
:1014400002B008F057B900BF00380240026882B00D
:10145000084B9A420BD1D3F8302803F5006342F4CD
:1014600080521A631B6B03F480530193019B02B0FB
:10147000704700BF003002400E4B07B502689A4229
:1014800015D1A3F5F04305215A201A6B42F400024E
:101490001A6300221B6B03F400030193019B08F005
:1014A00029F95A2003B05DF804EB08F055B903B0F0
:1014B0005DF804FB00B0024010B5A8B00446142249
:1014C000002102A832F05AF88422002107A832F045
:1014D00055F82268174B9A422AD14FF4803307A857
:1014E00007930AF009F808B1FFF790FF124C4FF488
:1014F000C07201211148236B43F080032363236BE7
:1015000003F080030093009B1223CDE90223032301
:10151000CDE90413042302A9069308F023FB236CEE
:1015200043F400032364236C03F400030193019B41
:1015300028B010BD005C004000380240001C024092
:10154000026808B5094B9A420FD1094A802109481F
:10155000136C23F40003136408F0E8FB4FF480716C
:101560000448BDE8084008F0E1BB08BD005C00404D
:1015700000380240001C024070B5ACB00446142292
:10158000002106A831F0FAFF842200210BA831F0D7
:10159000F5FF2268484B9A4240F08C8008230520D2
:1015A00001240B934FF4C07310930223CDE9113043
:1015B0004FF400330BA8CDE9154309F09DFF08B1A6
:1015C000FFF724FF3D4B002402250E265A6C06A986
:1015D0003B4842F080625A645A6C02F0806200928A
:1015E000009A1A6B42F010021A631A6B02F0100292
:1015F0000192019A1A6B42F400721A631A6B02F498
:1016000000720292029A1A6B42F480621A631A6B99
:1016100002F480620392039A1A6B42F040021A634A
:101620001A6B02F040020492049A1A6B42F4807220
:101630001A631B6B03F480730593059B1023CDE99C
:101640000635CDE908440A9608F08CFA4EF6FF7389
:1016500006A91C480A96CDE90635CDE9084408F0EC
:1016600081FAF72306A918480A96CDE90635CDE98F
:10167000084408F077FA4FF4805306A91348CDE9DF
:1016800006350923CDE908440A9308F06BFA4FF4B4
:10169000464306A90E480A96CDE90635CDE9084429
:1016A00008F060FA58202246052108F023F8582057
:1016B00008F052F82CB070BD0068014000380240BC
:1016C000001002400024024000280240001802409E
:1016D00000200240142200212DE9F0418AB0044686
:1016E0000DEB020031F04AFF22682C4B9A4251D197
:1016F0002B4B0225032409269A6B4FF0040805A9F9
:10170000284842F0020200279A639A6B02F0020214
:101710000192019A1A6B42F010021A631A6B02F0DE
:1017200010020292029A1A6B42F002021A631A6BBA
:1017300002F002020392039A1A6B42F008021A6343
:101740001B6B03F008030493049BCDE90585CDE9E9
:10175000084608F007FA402305A91348CDE90535E6
:101760000A23CDE90774099308F0FCF905A90E488E
:101770000996CDE90585CDE9077408F0F3F94FF432
:10178000605305A909480996CDE90535CDE90774E7
:1017900008F0E8F90AB0BDE8F08100BF001000A031
:1017A000003802400010024000040240000C0240D9
:1017B000026808B50B4B9A4213D10B4A04210B481F
:1017C000936B23F00203936308F0B0FA44210848B6
:1017D00008F0ACFA4FF460510648BDE8084008F044
:1017E000A5BA08BD001000A0003802400010024059
:1017F00000040240000C0240F0B5002387B00393C0
:10180000294B1E68002E4DD10122022703250C24EE
:101810001A6001A9254B26489A6B42F001029A638F
:101820009B6B03F001030093009B4FF68373CDE99C
:101830000454CDE9013708F095F948F2331301A9B2
:101840001C480594CDE90137CDE9036508F08AF914
:101850004CF2037301A918480594CDE90137CDE98D
:10186000036508F07FF94FF63F0301A9134805947B
:10187000CDE90137CDE9036508F074F9282301A902
:101880000F480594CDE90137CDE9036508F06AF901
:10189000082301A90B480594CDE90137CDE903657B
:1018A00008F060F907B0F0BD3C03002000380240AA
:1018B0000010024000180240000C024000140240D8
:1018C000001C024000080240214B1A6C42F010023A
:1018D00070B51A6488B01B6C054601A903A803F013
:1018E00010030293029B09F0E9FD069B4BBB09F034
:1018F000D5FD184E184B336040F2E733F360174BB9
:10190000B0FBF3F3013B3046736000233361B360F7
:10191000B3610AF02BFA044680B930460AF0CEF8DB
:10192000044658B9362007F017FF0F2D0DD8224670
:101930002946362007F0DEFE094B1D60204608B020
:1019400070BD09F0ABFD4000D3E70124F6E700BF0E
:1019500000380240400300200010004040420F00C9
:101960003C0000207047FEE7FEE7FEE7FEE7704719
:1019700001480AF0E5B800BF40030020014808F024
:10198000FFBE00BFDC010020014808F01AB800BF0C
:10199000D80200200120704708B531F0A3FE1623BD
:1019A00003604FF0FF3008BD08B531F09BFE1623F1
:1019B0000360FEE770B50D4614460E46731B9C424D
:1019C00001DC204670BDAFF3008006F8010BF5E79F
:1019D00070B50D4614460E46731B9C4201DC204632
:1019E00070BD16F8010BAFF30080F5E74FF0FF3044
:1019F00070474FF4005300204B6070470120704740
:101A0000002070470B4A0346116810B509B90A490E
:101A10001160106809490A4C0344091B8B4206D91E
:101A200031F060FE0C2303604FF0FF3010BD1360F7
:101A3000FCE700BF8C030020087E01200000052089
:101A4000000A000070470000DFF834D0002103E0F6
:101A50000C4B5B58435004310B480C4B42189A42D4
:101A6000F6D30B4A02E0002342F8043B094B9A42AA
:101A7000F9D307F00FFD31F03BFEFFF757FA70473F
:101A800000000520649703080000002024010020C6
:101A900024010020087E0120FEE7704708B501F010
:101AA00031F9BDE8084001F0B3B801F02DB9406844
:101AB00070474160704700004FF0E022D2F8FC3DD3
:101AC00043F08073C2F8FC3D054B064AD3F8B01FC3
:101AD0000A43C3F8B02F1A6842F001021A60704737
:101AE000001000E055CEACC5521A02EB5302B2FB17
:101AF000F3F07047014B5868704700BF001000E0DA
:101B0000704710B504460C2130F035FB204610BD5F
:101B1000036810B51B69044631B19847A268636831
:101B20009B1A0344636010BD9847A060FBE7000068
:101B3000024B7020024A1360DB6818471000002037
:101B400090030020704710B50446042130F013FBC9
:101B5000204610BD73B50E4E0D461446336813B9BA
:101B6000002002B070BD1B69702098470028F7D094
:101B70003368702001AA0DF106015B699847BDF832
:101B8000043001202B60BDF806302360E9E700BF78
:101B9000900300207FB501238DF817204FF47A724F
:101BA000CDE901320DF1170200920A4601460548BF
:101BB00008F0EEFA10B1034808F0D1FA07B05DF86A
:101BC00004FB00BF840200207FB500230A464FF4C7
:101BD0007A718DF817300123CDE901310DF117012C
:101BE00000910146054808F0ADFB10B1034808F02C
:101BF000B6FA9DF8170007B05DF804FB84020020D8
:101C0000032823D8DFE800F0020B131A104B102131
:101C100010481A68B2FA82F2520908F027B90C4B40
:101C200040215A68B2FA82F252090B48F5E7084B94
:101C300080219A68B2FA82F25209F6E7044B4021F9
:101C40000648DA68B2FA82F25209E6E7704700BF46
:101C500094030020000402400008024000180240E3
:101C6000032823D8DFE800F0020B131A104B1021D1
:101C700010481A68003A18BF012208F0F7B80C4B58
:101C800040215A68003A18BF01220B48F5E7084B7B
:101C900080219A68003A18BF0122F6E7044B4021E0
:101CA0000648DA68003A18BF0122E6E7704700BF2D
:101CB0009403002000040240000802400018024083
:101CC00003280FD8DFE800F00206090B10210648B0
:101CD00008F0D1B840210548FAE78021FBE7402110
:101CE0000348F5E7704700BF0004024000080240C7
:101CF0000018024008B5032813D8DFE800F0020AF4
:101D00000D0F1021084808F0ABF8431E5842584107
:101D100008BD40210548F6E78021FBE74021044843
:101D2000F1E70020F1E700BF000402400008024094
:101D30000018024070B5084D00240126E0B2FFF7FC
:101D4000D9FF18B12B68012B18BF2E600134043560
:101D5000052CF3D170BD00BF94030020012380F84F
:101D6000781080F87930704700207047416400395E
:101D7000024B18BF01211970704700BFCF710120BD
:101D800000207047836B0BB10846184770474FF629
:101D9000FF707047406803689B69184770470000F0
:101DA00038B5044601F0FEF8084923682046084D7E
:101DB000D3F88C3098470023284684F84A30FFF740
:101DC0007BFE0123256184F8703038BD000000C01F
:101DD000A403002001F088B801F08CB870B501F0C0
:101DE0000BF910490023C1F88430BFF34F8FD1F8AD
:101DF000803043F6E074C3F3C900C3F34E335B0194
:101E000003EA0406024646EA8275013AC1F87452B2
:101E1000F9D2203B13F1200FF2D1BFF34F8FBFF364
:101E20006F8F70BD00ED00E001F0E8B801F038B848
:101E300001F00ABA01F012BA01F03CB810B504463C
:101E40001AF01AFC23682046D3F8AC30BDE81040E5
:101E5000184719F061BE10B504467C2130F08BF9AB
:101E6000204610BD90F834100D4B10B590F8784016
:101E70001A788C4209D03AB90A490B4A0888148862
:101E8000108001220C801A7010BD002AFCD0064A76
:101E90000449148808880C8010800022F3E700BFF2
:101EA000C8710120C6710120C471012070B50D46B2
:101EB000194635B9094B40F2D221094A094831F097
:101EC000A1F8C0E90F52003A074B18BF01221A705F
:101ED0000368BDE87040D3F88C30184720450308EC
:101EE00058450308A6450308CE71012008B5094BE3
:101EF0001B888B4203D8084B1B88934205D9074B9C
:101F00009E21074A074831F07DF8074B1980074B9F
:101F10001A8008BDC4710120C6710120EB45030879
:101F20004E460308A6450308CA710120CC71012062
:101F3000034690F87A0018B1586803681B68184780
:101F400070470000014608B5034B186801B1012134
:101F50001AF0ACFB012008BDD0710120034B002218
:101F60005A609A60024A1A60704700BFA4030020BA
:101F7000E84403080121002208B508460AF0F8F8F1
:101F80000A4B186028B90A4B28210A4A0A4831F03E
:101F900039F80022042101200AF0B4F9074B186037
:101FA00018B9074B2C21034AF0E708BDB403002001
:101FB0006C470308B5470308E4470308B003002053
:101FC00031480308024B4FF0FF3118680AF028B976
:101FD000B4030020014B18680AF05EB9B403002076
:101FE000024B002118680AF01BB900BFB40300209F
:101FF000FFF7F0BF0023034803491A4600680AF0C0
:10200000C7B900BFB00300200400002013B50023AF
:10201000074C01A91A4620680AF0FCF94FF0FF337B
:10202000002201A920680AF0F5F902B010BD00BF36
:10203000B003002003685B6C1847012070470368F9
:102040009B6A18470D4B82B01A6B42F400021A6368
:102050001A6B02F400020192019A1A6942F400021A
:102060001A611A6922F400021A61054B054A1A61C5
:102070004FF08062044B9A6002B070470038024013
:10208000D80200201523000800E100E040F2EF3004
:1020900070470000054B4FF080620360044BC3F8AB
:1020A0008820BFF34F8FBFF36F8F7047D04903086D
:1020B00000E100E010B504464FF45A61FFF7EAFF73
:1020C000204630F058F8204610BD000008B50A2818
:1020D00009D8DFE800F006100E08080808101010F4
:1020E0001000022008BD054B8621054A054830F046
:1020F00089FF0020F6E70120F4E700BF73480308DA
:102100008E480308D948030838B50C46887FFFF786
:10211000DDFF174BA58AE28A586342EA054221692E
:102120005A64628BD963521B1A642568082D0ED13C
:102130009A611A6158620F4A207F42EA0062DA61AE
:10214000E2681A620C4A5961D9601A6038BD0022EF
:10215000D8611A61E1680A0A4809C1F3C40102F4AE
:10216000784200F4FC6002430A439A63034AECE7B6
:1021700000B0024009000100010202000102030058
:1021800008B50B280BD8DFE800F00612100A0A0A7F
:102190000A0808080808022008BD0520FCE7054BCE
:1021A0006521054A054830F02DFF0020F4E70120A5
:1021B000F2E700BF7348030824490308D94803081D
:1021C0002DE9F04191F81D800C464046FFF7D8FFFD
:1021D000A77F05463846FFF7D3FF06463846FFF788
:1021E00075FFA18A628B434B521A1A649A61228B43
:1021F000521A1A61E28A586342EA014221695A641A
:102200006268D963DA602068802828D0227F0FD8DE
:10221000202866D0402864D004281AD045EA0265F8
:10222000344BB84545F40035DD6160D0324A44E0B6
:10223000B0F5807F04D0B0F5007FEFD12F4800E0EB
:102240002F4840EA0262DA61E2681A625E6259610E
:1022500032E045EA026242F40032DA61F6E7A06851
:10226000021DDA62227F45EA026545F40035DD6130
:102270005E625961017841B1012921D0214B4FF4AF
:102280008871214A214830F0BDFEDA69418822F484
:102290007F42013922F0100242EA01220121DA6173
:1022A000144BDA6942F02002DA61DA699206FCD452
:1022B00010229A600029B9D0154A1A60BDE8F08151
:1022C000B2F1FF01DA69408822F47F4218BF012190
:1022D000013822F0100242EA002242F01002DA61D4
:1022E000DEE745EA0262034B42F40032B5E740F212
:1022F0000122E2E700B002400102010009000200F1
:102300000A0002006E49030888490308D9480308F7
:1023100001020200024B1B68586803685B6918479A
:10232000D071012070B504460A4B0C3000262546BA
:10233000602260602672667245F8203B29461AF0DA
:102340000BFB04F55A63EE6024359D42FBD1204619
:1023500070BD00BFD0490308034B1A68D207FCD4F4
:1023600023229A60704700BF00B0024030B5104C85
:102370002568ED07FCD423250904FF2BA56041F057
:1023800001014FF0020565636164E0630AD0094909
:10239000656241EA0363E361074B22626061E060CA
:1023A000236030BDE561039BA363044BF8E700BFE6
:1023B00000B002400900010001000200010003001A
:1023C0004069704790F844007047036B23B9C06AB6
:1023D000003818BF0120704701207047806870479F
:1023E000043010B50C460FC884E80F0010BD7047CC
:1023F00008B5034A40F21221024B034830F002FEB6
:10240000184A030883650308734A030810B5044695
:1024100048212FF0B0FE204610BD00002DE9F0430A
:102420001C46436BADF51F7D05460E461746002B37
:1024300037D0002203A8DFF8A890CDE9013212F0CE
:10244000B9F84FF4F4725021249024A80CF067F8E6
:102450003A46314624A80CF0BBFF012124A80CF019
:1024600059F9022324A88DF8D8300CF0F4F9BDF8FE
:1024700098322B9ABDF89C629342A89F28BF1346BE
:10248000419A964203EB4308A7EB430728BF164641
:10249000479B9E4209D824A80CF05EF924A80CF0B2
:1024A0008BF80DF51F7DBDE8F083012201A924A85A
:1024B0000CF01AFA6B6B03EB0800984201D83C440D
:1024C000E6E759789A78C90009EA022201F4FC612A
:1024D0000A4313F8031B42EAD10224F8022BECE76B
:1024E00000F8FFFF0A4A02600022C0E90522C0E9A5
:1024F0000722C0E90922C0E90B22C0E90D12C0E998
:102500000F2280F84420C0E90322C0E9012270476D
:10251000544D030810B40C4611461A46036B3BB1E8
:10252000036C806BE41A20445DF8044B31F02EB844
:10253000C06AF8E7036B10B573B1036C826BC91AFC
:102540005318525C98785C780004DB7840EA0420E9
:10255000104340EA036010BDC36A5858FBE7036BA1
:1025600043B1036CC91A836B5A18585C527840EA1D
:1025700002207047C36A585A7047000070B504467D
:10258000006B0D461646D8B1E36B934208D209237F
:102590000D4A65210D4884F844300D4B30F032FD72
:1025A0000368DB689847206B3246A16B03681B69A0
:1025B000984710B90D2384F84430A06B256470BD92
:1025C000E06A0844FBE700BFDD4A0308734A0308DA
:1025D000CA4A03082DE9F843436904462BB9234B43
:1025E000AA21234A234830F00DFD08228169FFF714
:1025F000C5FFA16943F2300646F264370431204634
:10260000FFF798FFA3691844A36A00F108029A42F1
:1026100006D3012300206361236AA361BDE8F88328
:10262000636909300822013320F00101204663610B
:10263000A161FFF7A3FFD4F8189020464946FFF7A1
:102640008EFF09F1020180462046FFF788FF09F15D
:10265000040105462046FFF76DFFB045D2D1BD42CB
:10266000D0D10028CED00120D8E700BF1F4B0308EF
:10267000684B0308734A03082DE9F04F0446ADF593
:102680001F7D8A461646816908229846FFF776FF25
:10269000A7692046391DFFF74DFF07F108010246E3
:1026A00005462046FFF76AFF636B074633B93C4B8C
:1026B00040F2AB113B4A3C4830F0A4FC002203A896
:1026C000CDE9013211F076FF4FF4F47250212490DD
:1026D00024A80BF024FF2A46394624A80CF078FEE3
:1026E000012124A80CF016F8022324A88DF8D83074
:1026F0000CF0B1F8BAF90250479BAB4229D3BAF9B2
:1027000000904FEA4808BAF804702B9B08FB056656
:102710004F44BAF80250DFF894B03FB29F4228BF4E
:102720001F46BAF8063009EB490A1D44419B2DB2F9
:102730009D4228BF1D46479BAB4210D324A80CF0F6
:102740000BF824A80BF038FF01200DF51F7DBDE824
:10275000F08F012201A924A80CF0C6F8CCE70122D1
:1027600001A924A80CF0C0F8626B49465244B94252
:1027700002F1030201D34644DDE712F8020C12F81D
:10278000013CC0000BEA032300F4FC60034312F891
:10279000030C43EAD00326F811300131E7E700BF0C
:1027A0009B4B0308F14B0308734A030800F8FFFF33
:1027B0000129036838BF0121DB6A70B50D46044664
:1027C0009847A84204D223682046DB6A984705460A
:1027D0006B1EE6691022204606EB031606F108017F
:1027E000FFF7CCFE06F110012046FFF7A3FE236A97
:1027F000043B0344C4E9055370BD00000021482296
:102800002DE9F0410446816180F84410FFF7B6FEDF
:10281000A6690423624A31462046FFF77BFE40B199
:102820000323604AF22184F844305F4B5F4830F064
:10283000E9FB06F1080104235D4A2046A161FFF788
:1028400069FE30B10423574AFA2184F84430594BC9
:10285000ECE706F10C010423574A2046A161FFF77B
:1028600059FE074638B105234E4A40F2011184F85B
:102870004430524BDAE706F110012046FFF75AFECA
:10288000054620B94E4B40F20711464ACEE706F105
:10289000140804234B4A20464146FFF73BFE00281C
:1028A00049D0062384F844300423474A06F118012E
:1028B0002046FFF72FFE00283FD0072384F844303E
:1028C0004544424F0C2220462946FFF757FE05F1AA
:1028D000080604233A4620463146FFF71BFE94F8CB
:1028E0004430002848D0002B48D1A36AAB4249D8D5
:1028F00005F10C0304352046A3612946FFF71AFEB3
:102900003044294660622046FFF714FE0644042244
:1029100020463146FFF732FE04232D4A3146204639
:10292000FFF7F8FD002838D10123E6616361A36950
:102930002362BDE8F0810127B6E7002FC0D006F181
:1029400020012046FFF7F6FD4FF47A7306F13001BF
:10295000B0FBF3F060602046FFF7ECFD06F14001AC
:10296000A0602046FFF7E6FD06F14401E060204646
:10297000FFF7E0FD2061A3E7002BB9D00A2384F81C
:102980004430D6E7291D2046FFF7D4FD85190C22D7
:1029900020462946FFF7F2FD99E70B23EFE700BF3A
:1029A0004B4C0308694C0308504C0308734A030856
:1029B000964C03089B4C0308B34C0308B84C03081F
:1029C000CE4C0308DA4C0308DF4C0308E44C030840
:1029D000E94C0308C0E90A2100220263FFF70EBF99
:1029E00010B5002304460846E3620B6821639B6828
:1029F0009847A0622046BDE81040FFF7FFBEF0B444
:102A0000069FBDF81050BDF8146032B12BB104958B
:102A1000CDE90567F0BCFFF701BDF0BC70470000D1
:102A20002DE9F04F9946436985B004460F4690461C
:102A30002BB9294B7721294A294830F0E3FA08229B
:102A40008169FFF79BFDA66920463146FFF787FDA8
:102A5000B11C83462046FFF782FD311D8246204689
:102A6000FFF768FD06F10801A36A054642189A427D
:102A700026D243F230039B4517D146F264339A4580
:102A800013D190B10246A1612046FFF777FD0E9B5E
:102A900001462A462046CDF80080CDE901933B4609
:102AA000FFF7ADFF636901336361A3692B4405B987
:102AB00008330133626A23F001039342A36109D111
:102AC000012301206361236AA36180F0010005B046
:102AD000BDE8F08F0020F8E71F4B0308EE4C030819
:102AE000734A0308012070470C2070470C2303FB36
:102AF0000100083070470C2303FB010008307047C9
:102B00000120704742F26C10704742F26C1303FBD5
:102B100001000830704742F26C1303FB01000830DB
:102B20007047012070471020704700EB01100830FB
:102B3000704700EB011008307047084600F01ABFDC
:102B4000034B10B50446036018F03EFD204610BD4F
:102B5000FC4D030810B50446FFF7F2FF1421204690
:102B60002FF009FB204610BD034B10B5044603604F
:102B700018F02AFD204610BDC84D030810B50446C4
:102B8000FFF7F2FF42F2741120462FF0F4FA2046CC
:102B900010BD0000034B10B50446036018F014FD8F
:102BA000204610BD944D030810B50446FFF7F2FF10
:102BB000182120462FF0DFFA204610BD094B10B532
:102BC0000446036000F506502030FFF7B9FF04F11A
:102BD0002C00FFF7C9FF04F11400FFF7DBFF2046CC
:102BE00010BD00BF304E030808B50248FFF7E6FFEE
:102BF00008BD00BF8412002010B50446FFF7DEFFB9
:102C000042F2143120462FF0B6FA204610BD0000E3
:102C10002DE9F34100F034FD0024054600F034FDB9
:102C20002346014622462846009421F0F7F8274B18
:102C3000274A2046274D1A6006F0C4F9264B274A3A
:102C400027489A6021F052F82B68BFF35B8FDB07AF
:102C500036D428462FF091FA90B3224C224F234BC2
:102C600004F1140007F1180604F12C0823606060D9
:102C7000C4F80880E760266118F0A8FC1C4B4046A9
:102C8000636118F0A3FC1B4B3846E36218F09EFC0E
:102C900004F50053184A03F5DA70C3F8A02106F0D2
:102CA00007FA224607F11401304606F0F7F93046DC
:102CB00000F060FE114830F0C3F928462FF069FAA1
:102CC0000F4802B0BDE8F041FFF76AB83472012046
:102CD0003404002080120020540400203804002016
:102CE000080000208412002024340020304E030805
:102CF000944D0308C84D0308FC4D0308E92B000858
:102D0000B803002070470000014818F06EBF00BFF4
:102D1000B803002070B5244E244B254C3046254D79
:102D20002360FFF7FFFA284625F052FB22481FF0E8
:102D300045F9224B00224FF4807121481A8683F80E
:102D400058205A6683F870205A67DC60C3E9121273
:102D50001C49C3E91A121C4999671C490B604FF4BE
:102D6000F07101801A4801804FF488711948C3E955
:102D70000422C3E90622C3E90822C3E90A22C3E9FF
:102D80000E22C3E91022C3E91422C3E91722C3E9C2
:102D900001650180104883F8342001800F490A70D2
:102DA0000F4A1A6070BD00BFDC0400201045030804
:102DB0007C1200205404002038040020B8030020B6
:102DC000C47101200100000100000101D071012047
:102DD000CA710120C6710120CC710120C871012087
:102DE0009C4603080148FFF755B900BFDC040020EA
:102DF0000020704781807047C18070470181704713
:102E0000418170477047704770477047704710B4F2
:102E1000C4880368121B84885B6D091B12B25DF8BD
:102E2000044B09B218474FF6FF7383814FF0FF330D
:102E300003621368C36110607047002070478B887D
:102E4000838001207047704780F82610704790F803
:102E500026007047002210B5B1F90840B1F90A10F8
:102E6000028042808480C18010BD002202804280A6
:102E70008280C28070470177704780ED080A7047F2
:102E800080F82410704780F82510704701207047A3
:102E9000983070478C30704784307047704700001E
:102EA000034B902283F85A2383F85823704700BFBE
:102EB00000E100E0094A0A49D3680A48C3F30A035B
:102EC000013B9BB20B801169C1F30A0101390180FA
:102ED0001364536B43F00103536370470068014070
:102EE0009A35002098350020014BD3F8AC0070478C
:102EF00000680140024B0122C3F8AC105A627047CF
:102F000000680140124A5369DB0370B51ED50023E7
:102F1000C2F88430BFF34F8FD2F8803043F6E074AC
:102F2000C3F3C900C3F34E335B0103EA0406014651
:102F300046EA81750139C2F87452F9D2203B13F187
:102F4000200FF2D1BFF34F8FBFF36F8F70BD00BF63
:102F500000ED00E07047704770473823002201FB06
:102F60000333C25490F838300BB9036C8364704754
:102F7000704780F84C10704710B504462C212FF094
:102F8000FAF8204610BD10B5044658212FF0F3F88A
:102F9000204610BD10B50446BC212FF0ECF82046A9
:102FA00010BD000038B5044618F00BFE23685D6EB6
:102FB0001DF0D6FE01462046A8472368084A204651
:102FC000D3F888500023A2F57F31A847054B064A65
:102FD0005A60064A1A649A644FF4FF225A6438BD54
:102FE00000F807C05C360020B436002000F40BC0A7
:102FF00018F0CEBD18F0D8BD18F094BD18F003BF7E
:1030000090F8252012B103685B69184770470000EB
:1030100008B531B1044B40F29711044A04482FF02F
:10302000F1FF90F8390008BD3C4E0308504E0308EC
:10303000DD4F030810B531B1064B40F29111064A3D
:1030400006482FF0DFFF406811460368BDE81040D6
:103050001B6B18473C4E03081F500308DD4F030845
:1030600008B529B1034B7A21034A04482FF0CAFF5F
:10307000006908BD3C4E0308D0510308DD4F03082A
:1030800008B529B1054B8321054A06482FF0BAFF40
:1030900041618160C0E9063208BD00BF3C4E0308B3
:1030A00088530308DD4F030810B5044629B1274BA8
:1030B000A421274A27482FF0A5FF052A34D8DFE8A6
:1030C00002F003292F34393E406803681B69984792
:1030D00050B34FF0FF31606D08F0EEFF0023012286
:1030E00094F83E1084F83B3084F83920A360636183
:1030F00001B1226284F83E306362E36A2BB9012396
:10310000206D84F83A3009F0C7F8606DBDE81040D2
:1031100009F002B8002380F8393084F83E3003E02B
:10312000036200238360436110BD03620023836058
:103130004361F2E7002380F839300123EDE7003BDB
:1031400018BF012380F83D30EEE700BF3C4E030876
:1031500047550308DD4F030890F825201AB190F871
:10316000242002B11860704770B50446164629B194
:10317000314BE721314A32482FF044FF90F8393083
:1031800033B1304B1B6893F86B20436913444361A0
:10319000E36A002B4DD0E169D4E905325343A268BC
:1031A0004A43934220D2236A002B42D04FF0FF3192
:1031B000606D08F081FF236A0BB10023E362E36ACC
:1031C000FBB90125606D08F0A7FF94F839300BB901
:1031D000236A3BB1E36A2BB90123206D84F83A30AE
:1031E00009F05AF8284670BD94F84C000028DDD04C
:1031F0009B1AB3FBF1F2994298BF02F1FF3262626F
:10320000D4E7002294F83C50A3623046E262E268C0
:103210002261A2680132A260336333685B69984718
:10322000002DCED194F83D30002BCBD184F839500D
:10323000C8E70125C9E700BF3C4E03081E57030835
:10324000DD4F0308D0710120034B4FF080629A607C
:103250004FF080729A60704700E100E0084B4FF039
:103260008062C3F88820BFF34F8FBFF36F8F4FF09A
:103270008072C3F88820BFF34F8FBFF36F8F704702
:1032800000E100E038B5034690F8380038BB012271
:103290009860D8609A634FF4807258619A874FF4AF
:1032A000F0729861D861186258629862D8621863A7
:1032B000586383F83E00CA864FF4887281F8340060
:1032C0000A8708639A6C186102F5FF24D3E9101588
:1032D00029448C420AD9084B5821084A03E0084B7C
:1032E00040F2F511074A08482FF08CFE1A6302F5E8
:1032F0007F329C645A6338BD7C5A0308BC5A030869
:10330000C2580308F2580308DD4F0308002370B5C4
:10331000124E05468380124B0360336893F85820A1
:103320000AB1D86C00B998680368DB6A98473368BB
:10333000B0FA80F4D86C640930B10368DB6A98474E
:10334000002808BF44F001042CB9064B2C21064A82
:1033500006482FF057FE284670BD00BFD0710120EF
:10336000645D0308625C0308C05C0308F95C030841
:1033700070B5244E3568BFF35B8F15F001053FD162
:1033800030462EF0FAFE00283AD01F4C1F4B04F1B5
:1033900034002561E584A562A585C4E90035C4E94A
:1033A00002551FF06AF804F158001AF0BFFE184BDE
:1033B0002046A365174B40F8843BFFF7A7FF164B49
:1033C0001648C4F884302433C4F89050C4F88C30C4
:1033D0006423C4F89C50C4F8A850C4E928350023DD
:1033E000C4F8AC30C4F8B030C4F8B430C4F8B83065
:1033F0000B4BC4F898302FF023FE30462EF0C9FE58
:10340000014870BD9C350020A0350020FC890308D0
:10341000845D0308FC5D0308B08903089D2E000845
:103420009089030810B5144C236823B3134B144A36
:103430001B6C11888B4213D1124B198807F02AFAA2
:10344000226892F86A30013382F86A30FEF7D2FDC2
:10345000206819F011F90020BDE81040FEF7D0BB3C
:1034600007F018FA206803681B6A98470020BDE837
:103470001040FEF7F5BB10BDD0710120006801407F
:103480009A350020983500202DE9F74304464FF483
:10349000707894F83A304FF0FF31002B31D0606DE6
:1034A00008F00AFE276BA36ABB4200D1676B266A4D
:1034B000656856B32B68314628465B6A98470023F7
:1034C000236284F83B30606D08F026FE2B684FF4D1
:1034D000F0723946CDF8008028465E694FF4887353
:1034E000B0474FF0FF310646606D08F0E5FD94F8F7
:1034F0003B30E3B1002384F83B30606D08F00CFEF4
:10350000C7E7206D08F08CFEC3E7636A002BDAD0B2
:103510002B682846D3E909939847616A01442846F5
:10352000C847A368626A66621344A360CBE7E76298
:103530005EB12B6828469B6A984701380023E060FB
:1035400084F83C6084F83A30D7E70120F6E70000C1
:10355000014808B5FFF798FF5C3600200368042295
:1035600070B504465E6A00230D46B0474FF0FF3148
:10357000606D08F0A1FD382303FB0542D16A09B153
:103580000021D16203FB0545012385F83B30002370
:1035900085F83930606DBDE8704008F0BDBD38B5C4
:1035A00000EB810304460D46114658680368DB684A
:1035B000984729462046FFF7D1FF38BD70B50D4624
:1035C0001146044600EB85025068026896681A4668
:1035D000B04729462046FFF7C1FF70BD38B51649F0
:1035E00000251648FEF77EFF154C164B01202A4693
:1035F000294623604FF48073A564A38784F84C00A8
:1036000084F83E50C4E91055C4E91455C4E9015585
:10361000C4E90355C4E90555C4E90755C4E909558A
:10362000C4E90B55C4E90D5508F0A2FD20652846F4
:1036300008F000FD606538BDFC360020B43600207F
:103640005C360020485E0308704710B5044604212C
:103650002EF091FD204610BD012908B506D00229A3
:1036600008D059B905F0ECFC006808BD05F0E8FC8D
:103670004068FAE705F0E4FC8068F6E70020F4E72C
:1036800000487047945E03080120704713B500247A
:1036900051B1036801AA01948DF803409C680DF1B3
:1036A0000303A04702B010BD0846FBE7C08970477E
:1036B000008A7047C088704780887047807A00F021
:1036C0007F007047807AC009704700207047000073
:1036D0009FED010A704700BF00000000704770476F
:1036E00000F598730868496803C3704770477047CE
:1036F0004160704770470000064BC0F84801C0F8B1
:103700004C310023C0F8503100F5A273C0F84031AD
:10371000704700BFB9370008012303727047704734
:10372000704710B441680346C2689B68541001EBAF
:103730006200D20748BF0A595DF8044B48BFD3580E
:1037400018470346406830B19A681AB9D86800F043
:10375000010070470120704710B504460C212EF07F
:103760000AFD204610BD10B5044610212EF003FDC1
:10377000204610BD10B504464FF4AE712EF0FBFC90
:10378000204610BD10B51DF0EBFA0368BDE81040EF
:10379000DB6B184710B50446D0F8400158B10368F8
:1037A000DB68984738B1D4F8400103689B689847B4
:1037B0000023C4F8403110BD2DE9F14FD0E9556A1E
:1037C0000746B06803681B6A984742F26B13984239
:1037D00005D8444BA321444A44482FF013FC706899
:1037E00003681B6A98470F2803D8414BA4213E4A1F
:1037F000F2E7F06803681B6A98470B2803D83D4B33
:10380000A521394AE8E7DFF8F4901DF0A9FA043061
:103810001DF0CBFAD9F8000010B10368DB689847B7
:10382000D9F8000010B103681B689847DFF8D08012
:10383000D8F8000010B103685B699847D7F83C01DD
:1038400010B103685B689847D8F8000010B10368AE
:103850001B689847D7F83C0110B103689B689847EC
:10386000F06800214FF0000B03685B6A9847224B19
:103870000446C0F804B080F808B059460360B06848
:1038800003685B6A9847054605F046FC7068594630
:1038900003685B6A98470646294605F01BFC331D02
:1038A000C7F83C612846C9F80040C8F80050CAF87B
:1038B00000302B68C6F808A0DB68EE6398473368D1
:1038C00030461B689847214628461FF007FB2368AF
:1038D00020461B699847236820465B6901B0BDE814
:1038E000F04F1847A85E0308365F03080860030816
:1038F0004F600308F26003080C620308187201208D
:1039000014720120044B1B6893F858200AB1D86C3C
:1039100000B99868704700BFD071012070B50446A7
:1039200016460D461DF0E2FA0E4B00211C600E4BB0
:1039300023600E4BC4E951310D4B1868C4E9531193
:103940000368C4E94F119B68C4E955659847FFF7C0
:10395000D9FF26F06EFBFFF7D5FF26F0E5FB2046EA
:1039600070BD00BF24720120B8610308A061030884
:10397000D0710120064BC0F84801C0F84C3100233B
:10398000C0F8503100F5A273C0F84031704700BF55
:10399000B9370008406A7047806A704770478B8863
:1039A000C069DB0A0A6850F823001044704710B55C
:1039B0000446BAB1107B68B1537BD27A1B0203F480
:1039C000E0631A43236A03EB82031A888A4202D116
:1039D00093F9020010BD05D80138043380B20028E5
:1039E000F3D1F7E70020F5E710B504462C212EF0BF
:1039F000C2FB204610BD000030B58BB00446BDF8B8
:103A000060500895BDF85C5007959DF8505006959C
:103A10009DF84C5005959DF8485004959DF84450EC
:103A200003959DF8405002959DF83C500195BDF8D6
:103A3000385000951EF0DEFD064B20462360159B96
:103A4000E361169B2362199B63621A9BA3620BB00E
:103A500030BD00BF30620308806A7047704770470E
:103A600070477047704780F82C10704710B4036897
:103A7000046BD3F8A430624361435DF8044B1847EC
:103A8000D0ED0C7A0368F8EEE77A10B420EE270A3E
:103A9000D3F8A440B5EEC00AF1EE10FA1ADBB6EE88
:103AA000007A30EE070ABDEEC07A17EE101A60EE0B
:103AB000A70AF5EEC00AF1EE10FA1EDBF6EE007A68
:103AC00070EEA70AFDEEE07A17EE902A23465DF825
:103AD000044B1847BDEEC07AF8EEC76A17EE103AED
:103AE000013B30EE660AF7EE086A30EE260ABDEEBC
:103AF000C00A10EE101A1944D9E7FDEEE07AB8EECC
:103B0000E77A17EE903A013B70EEC70AB7EE087AF3
:103B100070EE870AFDEEE00A10EE902A1A44D5E70F
:103B200010B40368046BD3F8B03062435DF8044B03
:103B30001847D0ED0C7A0368F8EEE77A10B427EE58
:103B4000800AD3F8B040B5EEC00AF1EE10FA0BDBF4
:103B5000F6EE007A30EE270AFDEEC07A17EE902AD4
:103B600023465DF8044B1847FDEEC07AB8EEE77ABD
:103B700017EE903A013B30EE470AB7EE087A30EE86
:103B8000070ABDEEC00A10EE102A1A44E8E710B486
:103B90000368446BD3F8BC30624361435DF8044B67
:103BA0001847D0ED0D7A0368F8EEE77A10B420EEEE
:103BB000270AD3F8BC40B5EEC00AF1EE10FA1ADBC2
:103BC000B6EE007A30EE070ABDEEC07A17EE101A94
:103BD00060EEA70AF5EEC00AF1EE10FA1EDBF6EE73
:103BE000007A70EEA70AFDEEE07A17EE902A2346DF
:103BF0005DF8044B1847BDEEC07AF8EEC76A17EEC1
:103C0000103A013B30EE660AF7EE086A30EE260AFB
:103C1000BDEEC00A10EE101A1944D9E7FDEEE07AA5
:103C2000B8EEE77A17EE903A013B70EEC70AB7EEAE
:103C3000087A70EE870AFDEEE00A10EE902A1A4428
:103C4000D5E710B40368446BD3F8C03062435DF825
:103C5000044B1847D0ED0D7A0368F8EEE77A10B4FC
:103C600027EE800AD3F8C040B5EEC00AF1EE10FA94
:103C70000BDBF6EE007A30EE270AFDEEC07A17EE87
:103C8000902A23465DF8044B1847FDEEC07AB8EE43
:103C9000E77A17EE903A013B30EE470AB7EE087A22
:103CA00030EE070ABDEEC00A10EE102A1A44E8E70B
:103CB000D0F82C31026B002B07DB02EB430090FBAA
:103CC000F2F000EBD070401070476FF0010101FB83
:103CD0000320013890FBF2F000EBD070401040421E
:103CE0007047D0ED4B7A90ED0C0AF8EEE77AB8EE1B
:103CF000C00A87EE800A7047D0F82C017047D0F8D0
:103D00003031026B002B07DB02EB430090FBF2F03B
:103D100000EBD070401070476FF0010101FB0320F1
:103D2000013890FBF2F000EBD07040104042704739
:103D3000D0ED4C7A90ED0C0AF8EEE77AB8EEC00AB6
:103D400087EE800A7047D0F830017047D0F83431E0
:103D5000426B002B07DB02EB430090FBF2F000EB21
:103D6000D070401070476FF0010101FB0320013853
:103D700090FBF2F000EBD070401040427047D0ED65
:103D80004D7A90ED0D0AF8EEE77AB8EEC00A87EEAC
:103D9000800A7047D0F834017047D0F83831426B50
:103DA000002B07DB02EB430090FBF2F000EBD0703E
:103DB000401070476FF0010101FB0320013890FBB8
:103DC000F2F000EBD070401040427047D0ED4E7AD8
:103DD00090ED0D0AF8EEE77AB8EEC00A87EE800A99
:103DE0007047D0F838017047036870B50446D3F8BF
:103DF00088300D46164698472368324629462046A5
:103E0000D3F89030BDE8704018470368D3F8943079
:103E100018470368D3F8D43018470368D3F8E03064
:103E200018470368002A10B4D3F8A430046B0EDBE3
:103E300004EB420292FBF4F101EBD1714910B0F9AD
:103E40001E215DF8044B013A0A44494218476FF0BD
:103E5000010101FB0241013991FBF4F101EBD17148
:103E600049104942EBE70368D3F83C311847026B2D
:103E700003685143D3F8483118470368D3F84431F5
:103E80001847D0ED0C7A0368F8EEE77AD3F84821AA
:103E900027EE800AB5EEC00AF1EE10FA08DBF6EE66
:103EA000007A30EE270AFDEEC07A17EE901A10471E
:103EB000FDEEC07AB8EEE77A17EE903A013B30EEAD
:103EC000470AB7EE087A30EE070ABDEEC00A10EED8
:103ED000101A1944EBE7C0F83C1170470368D3F897
:103EE00050311847036810B5D3F85C310446984741
:103EF0000028236B07DB03EB400090FBF3F000EBA3
:103F0000D070401010BD6FF0010202FB003001388C
:103F100090FBF3F000EBD07040104042F2E70368F2
:103F2000D3F858311847036810B50446D3F85C310C
:103F3000984707EE900A94ED0C0AF8EEE77AB8EE8F
:103F4000C00A87EE800A10BDD0F83C017047026BB2
:103F500003685143D3F868311847D0ED0C7A0368F1
:103F6000F8EEE77AD3F8682127EE800AB5EEC00AAA
:103F7000F1EE10FA08DBF6EE007A30EE270AFDEEDD
:103F8000C07A17EE901A1047FDEEC07AB8EEE77AC5
:103F900017EE903A013B30EE470AB7EE087A30EE62
:103FA000070ABDEEC00A10EE101A1944EBE7C0F87C
:103FB00040117047036810B5D3F874310446984730
:103FC0000028236B07DB03EB400090FBF3F000EBD2
:103FD000D070401010BD6FF0010202FB00300138BC
:103FE00090FBF3F000EBD07040104042F2E7036822
:103FF00010B50446D3F87431984707EE900A94ED53
:104000000C0AF8EEE77AB8EEC00A87EE800A10BD17
:10401000D0F8400170470846704703680029026BDA
:10402000D3F8843110B504460EDB02EB410191FB5D
:10403000F2F101EBD171491009B220469847D4E959
:104040004F2302FB003010BD6FF0010000FB012187
:10405000013991FBF2F101EBD17149104942EBE7D3
:10406000006B7047406B70470368D3F848311847BE
:104070000368D3F85C311847026B03685143D3F8E7
:1040800014311847036870B5D3F818510446D0F8B6
:104090004461D3F8803198472B4656F820102046CB
:1040A000BDE8704018477047704710B504464FF49C
:1040B0008E612EF060F8204610BD0000034B10B555
:1040C000044603601BF044FE204610BD5065030803
:1040D000064B10B5044603601BF03AFE42F26C1129
:1040E00020462EF048F8204610BD00BF506503085A
:1040F00008B590F82C300BB1FEF782FF08BD000028
:104100000A1E10B503DBB0F91E41944206DC084BD1
:1041100040F23961074A08482EF074FF0368D0F86E
:104120004441D3F88031984754F8200010BD00BFB7
:1041300090620308B3620308026303080B1E10B504
:10414000044603DBB0F91E219A4206DC074B40F21D
:104150003361074A07482EF055FF0368D3F88431CE
:104160009847D4E94F2302FB003010BD906203084A
:104170005F630308026303082DE9F0411D460368ED
:10418000044616461B6BBDF91870984723683146E4
:1041900020465B6B98472368294620469B6B9847CF
:1041A000236839462046DB6BBDE8F0411847000024
:1041B000094A4FF48071026000228184FF218262EB
:1041C00080F82610C0E90122C0E90322C0E90522D7
:1041D000C0E90722704700BF048E030837B501AB62
:1041E00015461EF005FB00282A4601994FEA4014A7
:1041F0004FF0200004DB1EF01AFB204403B030BD5A
:104200001EF015FB201AF9E770B5B0F81A310E460A
:10421000B0F91441B0F842502344ED1A2DB22C44A9
:10422000691ED0E94D32013CD21AF01AFFF7D6FFD1
:10423000C0EB441070BD38B504460D46B4F81631D5
:10424000B4F818110B44B4F84010C91AD0E94B0265
:1042500009B2121A281A0139FFF7C0FFB4F9163152
:1042600000EB431038BD00004A09064BC16003EA69
:10427000112302F4FC62C1F3C40113430B43038214
:10428000704700BF00F8FFFFA0F10800ECE700BF97
:104290002DE9F04F044685B000261EF073FC27463A
:1042A000F04B04F16C0B04F19805E66304F5A76983
:1042B00047F8403B3846FFF77BFF5846FFF778FF4B
:1042C000C82128464FF4887A1AF0B8FAE64BC7227C
:1042D0003146C4F898300123284604F10408C4E9A3
:1042E000753604F5F473C4E97736FFF7BFFBDF4B8F
:1042F000A4F8E461C4F8983004F5A1631846039368
:1043000019F014FFDA4B4846C4F808354FF00203A1
:1043100084F83435FEF7FAFFD64B4FF4E15104F23E
:104320004C50C4F838352433C4F84465C4F84035DB
:104330001BF004FD32464FF4F07331463846CDF899
:1043400000A0FFF719FF4FF07F4339464046A366B0
:1043500017F04EF932464FF4F07331465846CDF817
:1043600000A0FFF709FFC44B59464046C4F89430FB
:1043700017F03EF94FF4F073324631462846CDF837
:1043800000A0FFF7F9FE324664212846FFF72CFD16
:10439000C82231462846FFF769FB01212846FFF76E
:1043A00066FD31462846FFF7D2FD33463246314698
:1043B000284600961AF0F4F933463246314628462C
:1043C00000961AF02BF9FE2231462846FFF7DFFB54
:1043D000AA494846FFF748FF4FF0020303992846D1
:1043E000C4F8309584F834351AF023F9D4ED337AD3
:1043F0009FEDA37AF8EEE77A67EE877AF5EEC07A5A
:10440000F1EE10FAC2F20E85B6EE007A77EE877AF8
:10441000FDEEE77A17EE901A28461AF0CCFAD4EDA2
:10442000337A9FED987AF8EEE77A67EE877AF5EEC1
:10443000C07AF1EE10FAC2F20985B6EE007A77EE94
:10444000877AFDEEE77A17EE901A28461AF0B3FA4B
:10445000D4ED337A9FED8C7AF8EEE77A67EE877ABF
:10446000F5EEC07AF1EE10FAC2F20485B6EE007AEB
:1044700077EE877AFDEEE77A17EE901A28461AF063
:104480009AFAD4ED337A9FED817AF8EEE77A67EE07
:10449000877AF5EEC07AF1EE10FAC2F2FF84B6EE3A
:1044A000007A77EE877AFDEEE77A17EE901A2846C3
:1044B0001AF081FAD4ED337A9FED757AF8EEE77A47
:1044C00067EE877AF5EEC07AF1EE10FAC2F2FA845E
:1044D000B6EE007A77EE877AFDEEE77A17EE901A5D
:1044E00028461AF068FAD4ED337A9FED6A7AF8EE2E
:1044F000E77A67EE877AF5EEC07AF1EE10FAC2F24B
:10450000F584B6EE007A77EE877AFDEEE77A17EE5D
:10451000901A28461AF04FFAD4ED337A9FED5E7A5E
:10452000F8EEE77A67EE877AF5EEC07AF1EE10FAE8
:10453000C2F2F084B6EE007A77EE877AFDEEE77A83
:1045400017EE901A28461AF036FAD4ED337A9FED1A
:10455000537AF8EEE77A67EE877AF5EEC07AF1EEF5
:1045600010FAC2F2EB84B6EE007A77EE877AFDEEAF
:10457000E77A17EE901A28461AF01DFAD4ED337A2E
:104580009FED477AF8EEE77A67EE877AF5EEC07A24
:10459000F1EE10FAC2F2E684B6EE007A77EE877A90
:1045A000FDEEE77A17EE901A28461AF004FAD4EDD9
:1045B000337A9FED3C7AF8EEE77A67EE877AF5EE8C
:1045C000C07AF1EE10FAC2F2F984B6EE007A77EE14
:1045D000877AFDEEE77A17EE901A28461AF0EBF983
:1045E000D4ED337A9FED307AF8EEE77A67EE877A8A
:1045F000F5EEC07AF1EE10FAC2F2F484B6EE007A6B
:1046000077EE877AFDEEE77A17EE901A28461AF0D1
:10461000D2F9D4ED337A9FED257AF8EEE77A67EE9A
:10462000877AF5EEC07AF1EE10FAC2F2EF84B6EEB8
:10463000007A77EE877AFDEEE77A17EE901A284631
:104640001AF0B9F9D4ED337A9FED197AF8EEE77ADA
:1046500067EE877AF5EEC07AF1EE10FAC2F2EA84DC
:104660004EE000BF50650308C08A0308B863030822
:10467000888D0308B0890308141414FF1616C4FFAC
:10468000475F3F439A0D43436C37434387863F431D
:104690000FE13743FA6B2C439A891D4357D40B43E0
:1046A000D02BF0423077C6428F909C42371469423B
:1046B000C1C52042EFA0C7417ED25441D252B94079
:1046C00058FF2F407E358840B23A22418FE59F4106
:1046D00031B30442549D4342467F8442376FA8421F
:1046E000919ECB42E928EC425931044375790F433E
:1046F000C5731743ADE11B4340C21C4395511A4398
:10470000B6EE007A77EE877AFDEEE77A17EE901A2A
:1047100028461AF050F9D4ED337A1FED1A7AF8EEE4
:10472000E77A67EE877AF5EEC07AF1EE10FAC2F218
:104730009584B6EE007A77EE877AFDEEE77A17EE8B
:10474000901A28461AF037F9D4ED337A1FED267AFD
:10475000F8EEE77A67EE877AF5EEC07AF1EE10FAB6
:10476000C2F29084B6EE007A77EE877AFDEEE77AB1
:1047700017EE901A28461AF01EF9D4ED337A1FED81
:10478000317AF8EEE77A67EE877AF5EEC07AF1EEE5
:1047900010FAC2F28B84B6EE007A77EE877AFDEEDD
:1047A000E77A17EE901A28461AF005F9D4ED337A15
:1047B0001FED3D7AF8EEE77A67EE877AF5EEC07A7C
:1047C000F1EE10FAC2F28684B6EE007A77EE877ABE
:1047D000FDEEE77A17EE901A28461AF0ECF8D4EDC1
:1047E000337A1FED487AF8EEE77A67EE877AF5EECE
:1047F000C07AF1EE10FAC2F28184B6EE007A77EE5A
:10480000877AFDEEE77A17EE901A28461AF0D3F869
:10481000D4ED337A1FED547AF8EEE77A67EE877AB3
:10482000F5EEC07AF1EE10FAC2F27C84B6EE007AB0
:1048300077EE877AFDEEE77A17EE901A28461AF09F
:10484000BAF8D4ED337A1FED5F7AF8EEE77A67EEC7
:10485000877AF5EEC07AF1EE10FAC2F27784B6EEFE
:10486000007A77EE877AFDEEE77A17EE901A2846FF
:104870001AF0A1F8D4ED337A1FED6B7AF8EEE77AEF
:1048800067EE877AF5EEC07AF1EE10FAC2F2728422
:10489000B6EE007A77EE877AFDEEE77A17EE901A99
:1048A00028461AF088F8D4ED337A1FED767AF8EEC0
:1048B000E77A67EE877AF5EEC07AF1EE10FAC2F287
:1048C0006D84B6EE007A77EE877AFDEEE77A17EE22
:1048D000901A28461AF06FF8D4ED337A1FED827AD9
:1048E000F8EEE77A67EE877AF5EEC07AF1EE10FA25
:1048F000C2F26884B6EE007A77EE877AFDEEE77A48
:1049000017EE901A28461AF056F8D4ED337A1FEDB8
:104910008D7AF8EEE77A67EE877AF5EEC07AF1EEF7
:1049200010FAC2F26384B6EE007A77EE877AFDEE73
:10493000E77A17EE901A28461AF03DF8D4ED337A4C
:104940001FED997AF8EEE77A67EE877AF5EEC07A8E
:10495000F1EE10FAC2F25E84B6EE007A77EE877A54
:10496000FDEEE77A17EE901A28461AF024F8D4EDF7
:10497000337A1FEDA47AF8EEE77A67EE877AF5EEE0
:10498000C07AF1EE10FAC2F25984B6EE007A77EEF0
:10499000877AFDEEE77A17EE901A28461AF00BF8A0
:1049A000D4ED337A1FEDB07AF8EEE77A67EE877AC6
:1049B000F5EEC07AF1EE10FAC2F25484B6EE007A47
:1049C00077EE877AFDEEE77A17EE901A284619F00F
:1049D000F2FFD4ED337A1FEDBB7AF8EEE77A67EE9B
:1049E000877AF5EEC07AF1EE10FAC2F24F84B6EE95
:1049F000007A77EE877AFDEEE77A17EE901A28466E
:104A000019F0D9FFD4ED337A1FEDC77AF8EEE77AC3
:104A100067EE877AF5EEC07AF1EE10FAC2F24A84B8
:104A2000B6EE007A77EE877AFDEEE77A17EE901A07
:104A3000284619F0C0FFD4ED337A1FEDD27AF8EE94
:104A4000E77A67EE877AF5EEC07AF1EE10FAC2F2F5
:104A50004584B6EE007A77EE877AFDEEE77A17EEB8
:104A6000901A284619F0A7FFD4ED337A1FEDDE7AAD
:104A7000F8EEE77A67EE877AF5EEC07AF1EE10FA93
:104A8000C2F24084B6EE007A77EE877AFDEEE77ADE
:104A900017EE901A284619F08EFFD4ED337A1FEDE9
:104AA000E97AF8EEE77A67EE877AF5EEC07AF1EE0A
:104AB00010FAC2F23B84B6EE007A77EE877AFDEE0A
:104AC000E77A17EE901A284619F075FFD4ED337A7D
:104AD0009FEDF37AF8EEE77A67EE877AF5EEC07A23
:104AE000F1EE10FAC2F23684B6EE007A77EE877AEB
:104AF000FDEEE77A17EE901A284619F05CFFD4ED28
:104B0000337A9FEDE87AF8EEE77A67EE877AF5EE8A
:104B1000C07AF1EE10FAC2F23184B6EE007A77EE86
:104B2000877AFDEEE77A17EE901A284619F043FFD0
:104B3000D4ED337A9FEDDC7AF8EEE77A67EE877A88
:104B4000F5EEC07AF1EE10FAC2F22C84B6EE007ADD
:104B500077EE877AFDEEE77A17EE901A284619F07D
:104B60002AFFD4ED337A9FEDD17AF8EEE77A67EE3B
:104B7000877AF5EEC07AF1EE10FAC2F22784B6EE2B
:104B8000007A77EE877AFDEEE77A17EE901A2846DC
:104B900019F011FFD4ED337A9FEDC57AF8EEE77A7C
:104BA00067EE877AF5EEC07AF1EE10FAC2F222844F
:104BB000B6EE007A77EE877AFDEEE77A17EE901A76
:104BC000284619F0F8FED4ED337A9FEDBA7AF8EE64
:104BD000E77A67EE877AF5EEC07AF1EE10FAC2F264
:104BE0001D84B6EE007A77EE877AFDEEE77A17EE4F
:104BF000901A284619F0DFFED4ED337A9FEDAE7A95
:104C0000F8EEE77A67EE877AF5EEC07AF1EE10FA01
:104C1000C2F21884B6EE007A77EE877AFDEEE77A74
:104C200017EE901A284619F0C6FED4ED337A9FEDA0
:104C3000A37AF8EEE77A67EE877AF5EEC07AF1EEBE
:104C400010FAC2F21384B6EE007A77EE877AFDEEA0
:104C5000E77A17EE901A284619F0ADFED4ED337AB4
:104C60009FED977AF8EEE77A67EE877AF5EEC07AED
:104C7000F1EE10FAC2F20E84B6EE007A77EE877A81
:104C8000FDEEE77A17EE901A284619F094FED4ED5F
:104C9000337A9FED8C7AF8EEE77A67EE877AF5EE55
:104CA000C07AF1EE10FAC2F20984B6EE007A77EE1D
:104CB000877AFDEEE77A17EE901A284619F07BFE08
:104CC000D4ED337A9FED807AF8EEE77A67EE877A53
:104CD000F5EEC07AF1EE10FAC2F20484B6EE007A74
:104CE00077EE877AFDEEE77A17EE901A284619F0EC
:104CF00062FED4ED337A9FED757AF8EEE77A67EECF
:104D0000877AF5EEC07AF1EE10FAC2F2FF83B6EEC2
:104D1000007A77EE877AFDEEE77A17EE901A28464A
:104D200019F049FED4ED337A9FED697AF8EEE77A0F
:104D300067EE877AF5EEC07AF1EE10FAC2F2FA83E6
:104D4000B6EE007A77EE877AFDEEE77A17EE901AE4
:104D5000284619F030FED4ED337A9FED5E7AF8EEF6
:104D6000E77A67EE877AF5EEC07AF1EE10FAC2F2D2
:104D7000F583B6EE007A77EE877AFDEEE77A17EEE6
:104D8000901A284619F017FED4ED337A9FED527A27
:104D9000F8EEE77A67EE877AF5EEC07AF1EE10FA70
:104DA000C2F2F083B6EE007A77EE877AFDEEE77A0C
:104DB00017EE901A284619F0FEFDD4ED337A9FEDD8
:104DC000477AF8EEE77A67EE877AF5EEC07AF1EE89
:104DD00010FAC2F2EB83B6EE007A77EE877AFDEE38
:104DE000E77A17EE901A284619F0E5FDD4ED337AEC
:104DF0009FED3B7AF8EEE77A67EE877AF5EEC07AB8
:104E0000F1EE10FAC2F2E683B6EE007A77EE877A18
:104E1000FDEEE77A17EE901A284619F0CCFDD4ED96
:104E2000337A9FED307AF8EEE77A67EE877AF5EE1F
:104E3000C07AF1EE10FAC2F2E183B6EE007A77EEB4
:104E4000877AFDEEE77A17EE901A284619F0B3FD3F
:104E5000D4ED337A9FED247AF8EEE77A67EE877A1D
:104E6000F5EEC07AF1EE10FAC2F2DC83B6EE007A0B
:104E700077EE877AFDEEE77A17EE901A284619F05A
:104E80009AFDD4ED337A9FED197AF8EEE77A67EE62
:104E9000877AF5EEC07AF1EE10FAC2F2D7834DE0D0
:104EA00054041543A87F0D43318E04432725F64251
:104EB00015F1E342C74AD442D8D1C84252DFC242B8
:104EC000A16EC342640CCB422DCCD942DD45EF42EA
:104ED0006B4D05435041154320AF264390A83843FE
:104EE000ED2E4A43AE425A430CF36743E26C7243E1
:104EF000B107794329507B43630F7943874E72434F
:104F00007356674392AB58430C064743CF4633432F
:104F1000236A1E439A7809438DEEEA4277B0C6426F
:104F200086D8A7425CAD8F42EF0F7E42E28F6C4283
:104F3000559E6A42D80A774282E38742B6EE007AEB
:104F400077EE877AFDEEE77A17EE901A284619F089
:104F500032FDD4ED337A1FED1A7AF8EEE77A67EE78
:104F6000877AF5EEC07AF1EE10FAC2F28383B6EEDC
:104F7000007A77EE877AFDEEE77A17EE901A2846E8
:104F800019F019FDD4ED337A1FED267AF8EEE77AA1
:104F900067EE877AF5EEC07AF1EE10FAC2F27E8300
:104FA000B6EE007A77EE877AFDEEE77A17EE901A82
:104FB000284619F000FDD4ED337A1FED317AF8EE72
:104FC000E77A67EE877AF5EEC07AF1EE10FAC2F270
:104FD0007983B6EE007A77EE877AFDEEE77A17EE00
:104FE000901A284619F0E7FCD4ED337A1FED3D7A8C
:104FF000F8EEE77A67EE877AF5EEC07AF1EE10FA0E
:10500000C2F27483B6EE007A77EE877AFDEEE77A25
:1050100017EE901A284619F0CEFCD4ED337A1FED26
:10502000487AF8EEE77A67EE877AF5EEC07AF1EE25
:1050300010FAC2F26F83B6EE007A77EE877AFDEE51
:10504000E77A17EE901A284619F0B5FCD4ED337ABA
:105050001FED547AF8EEE77A67EE877AF5EEC07ABC
:10506000F1EE10FAC2F26A83B6EE007A77EE877A32
:10507000FDEEE77A17EE901A284619F09CFCD4ED65
:10508000337A1FED5F7AF8EEE77A67EE877AF5EE0E
:10509000C07AF1EE10FAC2F26583B6EE007A77EECE
:1050A000877AFDEEE77A17EE901A284619F083FC0E
:1050B000D4ED337A1FED6B7AF8EEE77A67EE877AF4
:1050C000F5EEC07AF1EE10FAC2F26083B6EE007A25
:1050D00077EE877AFDEEE77A17EE901A284619F0F8
:1050E0006AFCD4ED337A1FED767AF8EEE77A67EE54
:1050F000877AF5EEC07AF1EE10FAC2F25B83B6EE73
:10510000007A77EE877AFDEEE77A17EE901A284656
:1051100019F051FCD4ED337A1FED827AF8EEE77A7C
:1051200067EE877AF5EEC07AF1EE10FAC2F2568396
:10513000B6EE007A77EE877AFDEEE77A17EE901AF0
:10514000284619F038FCD4ED337A1FED8D7AF8EE4D
:10515000E77A67EE877AF5EEC07AF1EE10FAC2F2DE
:105160005183B6EE007A77EE877AFDEEE77A17EE96
:10517000901A284619F01FFCD4ED337A1FED997A66
:10518000F8EEE77A67EE877AF5EEC07AF1EE10FA7C
:10519000C2F24C83B6EE007A77EE877AFDEEE77ABC
:1051A00017EE901A284619F006FCD4ED337A1FED5D
:1051B000A47AF8EEE77A67EE877AF5EEC07AF1EE38
:1051C00010FAC2F24783B6EE007A77EE877AFDEEE8
:1051D000E77A17EE901A284619F0EDFBD4ED337AF2
:1051E0001FEDB07AF8EEE77A67EE877AF5EEC07ACF
:1051F000F1EE10FAC2F24283B6EE007A77EE877AC9
:10520000FDEEE77A17EE901A284619F0D4FBD4ED9C
:10521000337A1FEDBB7AF8EEE77A67EE877AF5EE20
:10522000C07AF1EE10FAC2F23D83B6EE007A77EE64
:10523000877AFDEEE77A17EE901A284619F0BBFB45
:10524000D4ED337A1FEDC77AF8EEE77A67EE877A06
:10525000F5EEC07AF1EE10FAC2F23883B6EE007ABB
:1052600077EE877AFDEEE77A17EE901A284619F066
:10527000A2FBD4ED337A1FEDD27AF8EEE77A67EE2F
:10528000877AF5EEC07AF1EE10FAC2F23383B6EE09
:10529000007A77EE877AFDEEE77A17EE901A2846C5
:1052A00019F089FBD4ED337A1FEDDE7AF8EEE77A58
:1052B00067EE877AF5EEC07AF1EE10FAC2F22E832D
:1052C000B6EE007A77EE877AFDEEE77A17EE901A5F
:1052D000284619F070FBD4ED337A1FEDE97AF8EE29
:1052E000E77A67EE877AF5EEC07AF1EE10FAC2F24D
:1052F0002983B6EE007A77EE877AFDEEE77A17EE2D
:10530000901A284619F057FBD4ED337A9FEDF37AC3
:10531000F8EEE77A67EE877AF5EEC07AF1EE10FAEA
:10532000C2F22483B6EE007A77EE877AFDEEE77A52
:1053300017EE901A284619F03EFBD4ED337A9FED14
:10534000E87AF8EEE77A67EE877AF5EEC07AF1EE62
:1053500010FAC2F21F83B6EE007A77EE877AFDEE7E
:10536000E77A17EE901A284619F025FBD4ED337A28
:105370009FEDDC7AF8EEE77A67EE877AF5EEC07A91
:10538000F1EE10FAC2F21A83B6EE007A77EE877A5F
:10539000FDEEE77A17EE901A284619F00CFBD4EDD3
:1053A000337A9FEDD17AF8EEE77A67EE877AF5EEF9
:1053B000C07AF1EE10FAC2F21583B6EE007A77EEFB
:1053C000877AFDEEE77A17EE901A284619F0F3FA7D
:1053D000D4ED337A9FEDC57AF8EEE77A67EE877AF7
:1053E000F5EEC07AF1EE10FAC2F21083B6EE007A52
:1053F00077EE877AFDEEE77A17EE901A284619F0D5
:10540000DAFAD4ED337A9FEDBA7AF8EEE77A67EEFE
:10541000877AF5EEC07AF1EE10FAC2F20B83B6EE9F
:10542000007A77EE877AFDEEE77A17EE901A284633
:1054300019F0C1FAD4ED337A9FEDAE7AF8EEE77A3F
:1054400067EE877AF5EEC07AF1EE10FAC2F20683C3
:10545000B6EE007A77EE877AFDEEE77A17EE901ACD
:10546000284619F0A8FAD4ED337A9FEDA37AF8EE26
:10547000E77A67EE877AF5EEC07AF1EE10FAC2F2BB
:105480000183B6EE007A77EE877AFDEEE77A17EEC3
:10549000901A284619F08FFAD4ED337A9FED977A57
:1054A000F8EEE77A67EE877AF5EEC07AF1EE10FA59
:1054B000C2F2FC82B6EE007A77EE877AFDEEE77AEA
:1054C00017EE901A284619F076FAD4ED337A9FED4C
:1054D0008C7AF8EEE77A67EE877AF5EEC07AF1EE2D
:1054E00010FAC2F2F782B6EE007A77EE877AFDEE16
:1054F000E77A17EE901A284619F05DFAD4ED337A60
:105500009FED807AF8EEE77A67EE877AF5EEC07A5B
:10551000F1EE10FAC2F2F282B6EE007A77EE877AF6
:10552000FDEEE77A17EE901A284619F044FAD4ED0A
:10553000337A9FED757AF8EEE77A67EE877AF5EEC3
:10554000C07AF1EE10FAC2F2ED82B6EE007A77EE92
:10555000877AFDEEE77A17EE901A284619F02BFAB3
:10556000D4ED337A9FED697AF8EEE77A67EE877AC1
:10557000F5EEC07AF1EE10FAC2F2E882B6EE007AE9
:1055800077EE877AFDEEE77A17EE901A284619F043
:1055900012FAD4ED337A9FED5E7AF8EEE77A67EE91
:1055A000877AF5EEC07AF1EE10FAC2F2E382B6EE37
:1055B000007A77EE877AFDEEE77A17EE901A2846A2
:1055C00019F0F9F9D4ED337A9FED527AF8EEE77AD3
:1055D00067EE877AF5EEC07AF1EE10FAC2F2DE825B
:1055E000B6EE007A77EE877AFDEEE77A17EE901A3C
:1055F000284619F0E0F9D4ED337A9FED477AF8EEBA
:10560000E77A67EE877AF5EEC07AF1EE10FAC2F229
:10561000D982B6EE007A77EE877AFDEEE77A17EE5A
:10562000901A284619F0C7F9D4ED337A9FED3B7AEA
:10563000F8EEE77A67EE877AF5EEC07AF1EE10FAC7
:10564000C2F2D482B6EE007A77EE877AFDEEE77A80
:1056500017EE901A284619F0AEF9D4ED337A9FED83
:10566000307AF8EEE77A67EE877AF5EEC07AF1EEF7
:1056700010FAC2F2CF82B6EE007A77EE877AFDEEAC
:10568000E77A17EE901A284619F095F9D4ED337A97
:105690009FED247AF8EEE77A67EE877AF5EEC07A26
:1056A000F1EE10FAC2F2CA82B6EE007A77EE877A8D
:1056B000FDEEE77A17EE901A284619F07CF9D4ED42
:1056C000337A9FED197AF8EEE77A67EE877AF5EE8E
:1056D000C07AF1EE10FAC2F2C5824DE0410599425E
:1056E0004141AD42D5C4C24287B2D7421E41EA42CF
:1056F00043D9F842FF17014320AE02431CF3004395
:1057000078CFF7426893E742F41FD242FBC6B84213
:105710004F299D42B11C81428D1C4D42FEC61E4246
:10572000096DF54173C5C741EC17B941A42ACC41B5
:1057300035EC0042E87E2C42D64267421065974223
:105740008BF3BF42D06DEB425BE40B43EB7521431F
:1057500095683543CFD1464345ED544340285F43D8
:10576000FD29654379D8664357596443E80E5E4383
:10577000789154434EA54843B6EE007A77EE877A87
:10578000FDEEE77A17EE901A284619F014F9D4EDD9
:10579000337A1FED1A7AF8EEE77A67EE877AF5EE3C
:1057A000C07AF1EE10FAC2F27182B6EE007A77EEAC
:1057B000877AFDEEE77A17EE901A284619F0FBF883
:1057C000D4ED337A1FED267AF8EEE77A67EE877A22
:1057D000F5EEC07AF1EE10FAC2F26C82B6EE007A03
:1057E00077EE877AFDEEE77A17EE901A284619F0E1
:1057F000E2F8D4ED337A1FED317AF8EEE77A67EE0E
:10580000877AF5EEC07AF1EE10FAC2F26782B6EE50
:10581000007A77EE877AFDEEE77A17EE901A28463F
:1058200019F0C9F8D4ED337A1FED3D7AF8EEE77A36
:1058300067EE877AF5EEC07AF1EE10FAC2F2628274
:10584000B6EE007A77EE877AFDEEE77A17EE901AD9
:10585000284619F0B0F8D4ED337A1FED487AF8EE07
:10586000E77A67EE877AF5EEC07AF1EE10FAC2F2C7
:105870005D82B6EE007A77EE877AFDEEE77A17EE74
:10588000901A284619F097F8D4ED337A1FED547A20
:10589000F8EEE77A67EE877AF5EEC07AF1EE10FA65
:1058A000C2F25882B6EE007A77EE877AFDEEE77A9A
:1058B00017EE901A284619F07EF8D4ED337A1FEDD2
:1058C0005F7AF8EEE77A67EE877AF5EEC07AF1EE66
:1058D00010FAC2F25382B6EE007A77EE877AFDEEC6
:1058E000E77A17EE901A284619F065F8D4ED337A66
:1058F0001FED6B7AF8EEE77A67EE877AF5EEC07AFD
:10590000F1EE10FAC2F24E82B6EE007A77EE877AA6
:10591000FDEEE77A17EE901A284619F04CF8D4ED10
:10592000337A1FED767AF8EEE77A67EE877AF5EE4E
:10593000C07AF1EE10FAC2F24982B6EE007A77EE42
:10594000877AFDEEE77A17EE901A284619F033F8B9
:10595000D4ED337A1FED827AF8EEE77A67EE877A34
:10596000F5EEC07AF1EE10FAC2F24482B6EE007A99
:1059700077EE877AFDEEE77A17EE901A284619F04F
:105980001AF8D4ED337A1FED8D7AF8EEE77A67EEE8
:10599000877AF5EEC07AF1EE10FAC2F23F82B6EEE7
:1059A000007A77EE877AFDEEE77A17EE901A2846AE
:1059B00019F001F8D4ED337A1FED997AF8EEE77A11
:1059C00067EE877AF5EEC07AF1EE10FAC2F23A820B
:1059D000B6EE007A77EE877AFDEEE77A17EE901A48
:1059E000284618F0E8FFD4ED337A1FEDA47AF8EEDC
:1059F000E77A67EE877AF5EEC07AF1EE10FAC2F236
:105A00003582B6EE007A77EE877AFDEEE77A17EE0A
:105A1000901A284618F0CFFFD4ED337A1FEDB07AF4
:105A2000F8EEE77A67EE877AF5EEC07AF1EE10FAD3
:105A3000C2F23082B6EE007A77EE877AFDEEE77A30
:105A400017EE901A284618F0B6FFD4ED337A1FED02
:105A5000BB7AF8EEE77A67EE877AF5EEC07AF1EE78
:105A600010FAC2F22B82B6EE007A77EE877AFDEE5C
:105A7000E77A17EE901A284618F09DFFD4ED337A96
:105A80001FEDC77AF8EEE77A67EE877AF5EEC07A0F
:105A9000F1EE10FAC2F22682B6EE007A77EE877A3D
:105AA000FDEEE77A17EE901A284618F084FFD4ED41
:105AB000337A1FEDD27AF8EEE77A67EE877AF5EE61
:105AC000C07AF1EE10FAC2F22182B6EE007A77EED9
:105AD000877AFDEEE77A17EE901A284618F06BFFEA
