:020000040800F2
:1000000000000520491A0008651900086719000852
:10001000691900086B1900086D190008000000003C
:1000200000000000000000000000000091ED010849
:100030006F1900080000000031EE010895EE01087C
:10004000991A0008991A0008991A0008991A0008C4
:10005000991A0008991A0008991A0008991A0008B4
:10006000991A0008991A0008991A0008991A0008A4
:10007000991A0008991A0008991A0008991A000894
:10008000991A0008991A0008991A0008991A000884
:10009000991A0008991A0008991A0008991A000874
:1000A000991A0008991A0008991A0008991A000864
:1000B000991A0008991A0008991A0008991A000854
:1000C000991A0008991A0008991A0008991A000844
:1000D000991A0008991A0008991A0008991A000834
:1000E000991A0008991A0008991A0008991A000824
:1000F000991A0008991A0008991A0008991A000814
:10010000991A0008991A0008991A0008991A000803
:10011000991A0008991A000871190008991A00081C
:10012000991A0008991A0008991A0008991A0008E3
:10013000991A0008991A0008991A0008991A0008D3
:10014000991A0008991A0008991A0008991A0008C3
:10015000991A0008991A0008991A0008991A0008B3
:10016000991A0008991A0008991A0008991A0008A3
:10017000991A0008991A0008991A0008000000004E
:10018000991A0008991A0008991A0008991A000883
:10019000991A0008991A0008991A0008991A000873
:1001A0007D190008991A000889190008991A000891
:1001B000991A0008991A0008991A0008991A000853
:0801C000991A0008991A0008C1
:1001D00010B5054C237833B9044B13B10448AFF381
:1001E00000800123237010BD2401002000000000C6
:1001F0007C68040808B5034B1BB103490348AFF3FF
:10020000008008BD00000000280100207C68040870
:1002100001F0FF01102A2BDB10F0070F08D010F8B7
:10022000013B013A8B422DD010F0070F42B3F6D1BB
:10023000F0B441EA012141EA014122F007047FF0D4
:1002400000070023F0E80256083C85EA010586EA2B
:10025000010685FA47F5A3FA87F586FA47F6A5FA67
:1002600087F68EB9EED1F0BC01F0FF0102F0070273
:1002700032B110F8013B013A83EA010313B1F8D11E
:100280000020704701387047002D06BF35460338FF
:10029000073815F0010F07D1013015F4807F02BF38
:1002A000013015F4C03F0130F0BC0138704700BF89
:1002B00081F0004102E000BF83F0004330B54FEA17
:1002C00041044FEA430594EA050F08BF90EA020F84
:1002D0001FBF54EA000C55EA020C7FEA645C7FEA17
:1002E000655C00F0E2804FEA5454D4EB5555B8BF3A
:1002F0006D420CDD2C4480EA020281EA030382EAAB
:10030000000083EA010180EA020281EA0303362D3C
:1003100088BF30BD11F0004F4FEA01314FF4801C0F
:100320004CEA113102D0404261EB410113F0004F21
:100330004FEA03334CEA133302D0524263EB4303D8
:1003400094EA050F00F0A780A4F10104D5F1200E76
:100350000DDB02FA0EFC22FA05F2801841F10001D1
:1003600003FA0EF2801843FA05F359410EE0A5F1A5
:1003700020050EF1200E012A03FA0EFC28BF4CF0D6
:10038000020C43FA05F3C01851EBE37101F000458C
:1003900007D54FF0000EDCF1000C7EEB00006EEB99
:1003A0000101B1F5801F1BD3B1F5001F0CD3490823
:1003B0005FEA30004FEA3C0C04F101044FEA44527A
:1003C00012F5800F80F09A80BCF1004F08BF5FEA01
:1003D000500C50F1000041EB045141EA050130BDE1
:1003E0005FEA4C0C404141EB0101013C28BFB1F5F3
:1003F000801FE9D291F0000F04BF01460020B1FA3E
:1004000081F308BF2033A3F10B03B3F120020CDA10
:100410000C3208DD02F1140CC2F10C0201FA0CF0EE
:1004200021FA02F10CE002F11402D8BFC2F1200C53
:1004300001FA02F120FA0CFCDCBF41EA0C01904009
:10044000E41AA2BF01EB0451294330BD6FEA040452
:100450001F3C1CDA0C340EDC04F11404C4F120023D
:1004600020FA04F001FA02F340EA030021FA04F34F
:1004700045EA030130BDC4F10C04C4F1200220FAA6
:1004800002F001FA04F340EA0300294630BD21FAE4
:1004900004F0294630BD94F0000F83F4801306BFAA
:1004A00081F480110134013D4EE77FEA645C18BF9E
:1004B0007FEA655C29D094EA050F08BF90EA020F35
:1004C00005D054EA000C04BF1946104630BD91EA2D
:1004D000030F1EBF0021002030BD5FEA545C05D130
:1004E0004000494128BF41F0004130BD14F580046F
:1004F0003CBF01F5801130BD01F0004545F0FE41E3
:1005000041F470014FF0000030BD7FEA645C1ABF17
:10051000194610467FEA655C1CBF0B46024650EA4E
:10052000013406BF52EA033591EA030F41F400217A
:1005300030BD00BF90F0000F04BF0021704730B500
:100540004FF4806404F132044FF000054FF00001D5
:1005500050E700BF90F0000F04BF0021704730B596
:100560004FF4806404F1320410F0004548BF40426B
:100570004FF000013EE700BF42004FEAE2014FEAC0
:1005800031014FEA02701FBF12F07F4393F07F4F9B
:1005900081F06051704732F07F4208BF704793F09E
:1005A0007F4F04BF41F40021704730B54FF46074B1
:1005B00001F0004521F000411CE700BF50EA0102B4
:1005C00008BF704730B54FF000050AE050EA01025D
:1005D00008BF704730B511F0004502D5404261EBCD
:1005E00041014FF4806404F132045FEA915C3FF40E
:1005F000D8AE4FF003025FEADC0C18BF03325FEAAB
:10060000DC0C18BF033202EBDC02C2F1200300FA5B
:1006100003FC20FA02F001FA03FE40EA0E0021FA80
:1006200002F11444BDE600BF70B54FF0FF0C4CF46E
:10063000E06C1CEA11541DBF1CEA135594EA0C0F20
:1006400095EA0C0F00F0DEF82C4481EA030621EA5B
:100650004C5123EA4C5350EA013518BF52EA033596
:1006600041F4801143F4801338D0A0FB02CE4FF048
:100670000005E1FB02E506F00042E0FB03E54FF078
:100680000006E1FB03569CF0000F18BF4EF0010E70
:10069000A4F1FF04B6F5007F64F5407404D25FEA6C
:1006A0004E0E6D4146EB060642EAC62141EA55511F
:1006B0004FEAC52040EA5E504FEACE2EB4F1FD0C61
:1006C00088BFBCF5E06F1ED8BEF1004F08BF5FEADF
:1006D000500E50F1000041EB045170BD06F0004691
:1006E00046EA010140EA020081EA0301B4EB5C043E
:1006F000C2BFD4EB0C0541EA045170BD41F4801136
:100700004FF0000E013C00F3AB8014F1360FDEBF5A
:10071000002001F0004170BDC4F10004203C35DA36
:100720000C341BDC04F11404C4F1200500FA05F3B9
:1007300020FA04F001FA05F240EA020001F000425A
:1007400021F0004110EBD37021FA04F642EB0601D0
:100750005EEA430E08BF20EAD37070BDC4F10C04FA
:10076000C4F1200500FA04F320FA05F001FA04F2BE
:1007700040EA020001F0004110EBD37041F10001AA
:100780005EEA430E08BF20EAD37070BDC4F12005B5
:1007900000FA05F24EEA020E20FA04F301FA05F21D
:1007A00043EA020321FA04F001F0004121FA04F2C5
:1007B00020EA020000EBD3705EEA430E08BF20EA95
:1007C000D37070BD94F0000F0FD101F000464000CF
:1007D00041EB010111F4801F08BF013CF7D041EA51
:1007E000060195F0000F18BF704703F00046520055
:1007F00043EB030313F4801F08BF013DF7D043EA26
:100800000603704794EA0C0F0CEA135518BF95EADB
:100810000C0F0CD050EA410618BF52EA4306D1D162
:1008200081EA030101F000414FF0000070BD50EA81
:10083000410606BF1046194652EA430619D094EA0B
:100840000C0F02D150EA013613D195EA0C0F05D1F5
:1008500052EA03361CBF104619460AD181EA030149
:1008600001F0004141F0FE4141F470014FF0000001
:1008700070BD41F0FE4141F4780170BD70B54FF09C
:10088000FF0C4CF4E06C1CEA11541DBF1CEA13551C
:1008900094EA0C0F95EA0C0F00F0A7F8A4EB0504FE
:1008A00081EA030E52EA03354FEA013100F08880F5
:1008B0004FEA03334FF0805545EA131343EA1263BE
:1008C0004FEA022245EA111545EA10654FEA002673
:1008D0000EF000419D4208BF964244F1FD0404F52C
:1008E000407402D25B084FEA3202B61A65EB030588
:1008F0005B084FEA32024FF480104FF4002CB6EB45
:10090000020E75EB030E22BFB61A754640EA0C00C4
:100910005B084FEA3202B6EB020E75EB030E22BF04
:10092000B61A754640EA5C005B084FEA3202B6EB45
:10093000020E75EB030E22BFB61A754640EA9C0004
:100940005B084FEA3202B6EB020E75EB030E22BFD4
:10095000B61A754640EADC0055EA060E18D04FEA92
:10096000051545EA16754FEA06164FEAC30343EA32
:1009700052734FEAC2025FEA1C1CC0D111F4801FFF
:100980000BD141EA00014FF000004FF0004CB6E7F8
:1009900011F4801F04BF01430020B4F1FD0C88BF97
:1009A000BCF5E06F3FF6AFAEB5EB030C04BFB6EBA2
:1009B000020C5FEA500C50F1000041EB045170BD95
:1009C0000EF0004E4EEA113114EB5C04C2BFD4EBC2
:1009D0000C0541EA045170BD41F480114FF0000E46
:1009E000013C90E645EA060E8DE60CEA135594EAC2
:1009F0000C0F08BF95EA0C0F3FF43BAF94EA0C0FC5
:100A00000AD150EA01347FF434AF95EA0C0F7FF439
:100A100025AF104619462CE795EA0C0F06D152EA8D
:100A200003353FF4FDAE1046194622E750EA410671
:100A300018BF52EA43067FF4C5AE50EA41047FF482
:100A40000DAF52EA43057FF4EBAE12E74FEA4102E5
:100A5000B2F1E04324BFB3F5001CDCF1FE5C0DD91C
:100A600001F0004C4FEAC0024CEA5070B2F1004F66
:100A700040EB830008BF20F00100704711F0804F69
:100A800021D113F13872BCBF01F00040704741F42E
:100A900080114FEA5252C2F11802C2F1200C10FA32
:100AA0000CF320FA02F018BF40F001004FEAC12316
:100AB0004FEAD32303FA0CFC40EA0C0023FA02F3BA
:100AC0004FEA4303CCE77FEA625307D150EA013390
:100AD0001EBF4FF0FE4040F44000704701F0004060
:100AE00040F0FE4040F40000704700BF7BB972B98F
:100AF0000029BEBF00204FF0004106E008BF0028DB
:100B00001CBF6FF000414FF0FF3000F0B5B9ADF100
:100B1000080C6DE904CE002909DB002B1ADB00F07C
:100B20004DF8DDF804E0DDE9022304B070474042EF
:100B300061EB4101002B1BDB00F040F8DDF804E025
:100B4000DDE9022304B0404261EB4101524263EB14
:100B500043037047524263EB430300F02FF8DDF884
:100B600004E0DDE9022304B0404261EB410170473B
:100B7000524263EB430300F021F8DDF804E0DDE9C5
:100B8000022304B0524263EB4303704753B94AB99E
:100B9000002908BF00281CBF4FF0FF314FF0FF3085
:100BA00000F06AB9ADF1080C6DE904CE00F006F86A
:100BB000DDF804E0DDE9022304B070472DE9F047D9
:100BC000089D0C46002B4ED194468C458646B2FAC1
:100BD00082F262D94AB1C2F12003914020FA03F3B4
:100BE0000CFA02FC194300FA02FE4FEA1C471FFAF6
:100BF0008CF6B1FBF7F44FEA1E4307FB141143EAEE
:100C0000014304FB06F199420AD91CEB030304F1EA
:100C1000FF3080F01281994240F20F81023C634420
:100C2000591A1FFA8EF3B1FBF7F007FB101143EAD4
:100C3000014300FB06F69E420AD91CEB030300F1B8
:100C4000FF3180F0FC809E4240F2F980634402381C
:100C50009B1B40EA044000211DB1D3400022C5E99E
:100C60000032BDE8F0878B4205D90DB1C5E900011E
:100C700000210846F5E7B3FA83F1002946D1A342E3
:100C800002D39042C0F0F080861A64EB0303012087
:100C9000002DE6D0C5E90063E3E7002A40F090802C
:100CA000A1EB0C044FEA1C481FFA8CF70121B4FB9E
:100CB000F8F64FEA1E4308FB164443EA044307FBD9
:100CC00006F0984208D91CEB030306F1FF3402D268
:100CD000984200F2CD8026461C1A1FFA8EF3B4FB10
:100CE000F8F008FB104443EA044300FB07F79F4277
:100CF00008D91CEB030300F1FF3402D29F4200F23B
:100D0000B0802046DB1B40EA0640A5E7C1F1200683
:100D10008B4022FA06F71F4320FA06FC04FA01F37F
:100D200043EA0C03F44000FA01F8380C4FEA134987
:100D3000B4FBF0FE1FFA87FC00FB1E4449EA0444A2
:100D40000EFB0CF9A14502FA01F20AD93C190EF189
:100D5000FF3A80F08480A14540F28180AEF1020E1E
:100D60003C44A4EB09041FFA83F9B4FBF0F300FB45
:100D7000134449EA044403FB0CFCA44507D93C197D
:100D800003F1FF3067D2A44565D9023B3C4443EAF6
:100D90000E40A0FB0293A4EB0C049C42CE469C4662
:100DA00051D34ED055B1B8EB0E0364EB0C0404FAEA
:100DB00006F6CB401E43CC40C5E90064002150E755
:100DC000C2F1200320FA03F10CFA02FC24FA03F327
:100DD00094400C434FEA1C4800FA02FE1FFA8CF7BD
:100DE000B3FBF8F008FB1031230C43EA014300FB8E
:100DF00007F1994208D91CEB030300F1FF362CD20E
:100E000099422AD9023863445B1AA4B2B3FBF8F1C1
:100E100008FB113344EA034401FB07F3A34208D95A
:100E20001CEB040401F1FF3613D2A34211D902399D
:100E30006444E41A41EA004139E70446F0E6084612
:100E400006E7C845AED2B9EB020E63EB070C0138DA
:100E5000A8E73146EDE7034699E73046D4E7D646A2
:100E60007FE7634402384DE70646234608460FE70E
:100E7000023E634430E700BF704700BF01490020D5
:100E80001FF084B9451F000808B564201DF090FBD1
:100E9000FBE7000010B594B01022002102240AA83C
:100EA00044F0AEFD1422002103A844F0A9FD1D4B1F
:100EB000192108A81A6C42F080521A641B6C03F0C6
:100EC00080530193019B184B1A6842F440421A6008
:100ED00001221B6803F440430293029B4FF48033CA
:100EE000CDE908234FF48003CDE90E434FF4D873C6
:100EF000CDE91244CDE910131CF020FB1BF0BCFF20
:100F00000F2300200721CDE903344FF4A053CDE98E
:100F100005034FF4805303A807931CF0F7FC14B0AB
:100F200010BD00BF00380240007000402DE980482D
:100F30009BB01022002101250DA84FF0104944F06C
:100F40005FFD00241AF0FEFEC74B0DA8ADF834502B
:100F50001094CDE90E931AF013FF17230DA88DF806
:100F600035508DF83C308DF842501AF009FF0420BE
:100F70001AF0F6FEBFF34F8FBFF36F8FBB4AC2F874
:100F80005042BFF34F8FBFF36F8F536943F4003369
:100F90005361BFF34F8FBFF36F8FC2F88440BFF32D
:100FA0004F8FD2F8803043F6E074C3F3C900C3F327
:100FB0004E335B0103EA0406014646EA81750139B6
:100FC000C2F86052F9D2203B13F1200FF2D1BFF3E7
:100FD0004F8F536943F480335361BFF34F8FBFF397
:100FE0006F8F1AF015FE0024FFF754FF1422002122
:100FF0000DA844F005FD9E4B10219E481A6B012759
:101000004FF010084FF0030B42F010024FF4805ADB
:10101000994D4FF004091A631A6B984E02F01002B2
:101020000292029A1A6B42F002021A631A6B02F0E1
:1010300002020392039A1A6B42F001021A631A6BBE
:1010400002F001020492049A1A6B42F040021A6301
:101050001A6B02F040020592059A1A6B42F4007274
:101060001A631A6B02F400720692069A1A6B42F027
:1010700008021A631A6B02F008020792079A1A6BA9
:1010800042F480621A631A6B02F480620892089A32
:101090001A6B42F020021A631A6B02F020020992C6
:1010A000099A1A6B42F480721A631A6B02F4807206
:1010B0000A920A9A1A6B42F080021A631A6B02F0C3
:1010C00080020B920B9A1A6B42F004021A63002200
:1010D0001B6B03F004030C930C9B1BF09DF9012286
:1010E000082167481BF098F901224FF480516548A8
:1010F0001BF092F90022C02163481BF08DF90022F9
:10110000402162481BF088F90DA95A48CDE90D87A6
:10111000CDE90F4B1AF0FCFF08230DA95848CDE983
:101120000D37CDE90F441AF0F3FF0DA95548CDE96D
:101130000DA7CDE90F441AF0EBFFC0220DA95248CC
:10114000CDE90D27CDE90F4B1AF0E2FF40220DA9A2
:101150004E48CDE90D27CDE90F4B1AF0D9FF4C4889
:101160004C49848001600762C0E905441AF034FEEE
:1011700049492846C5E90014C5E90244C5E90A44BD
:10118000C5E90C441AF0C5FE39462846434D1AF00D
:1011900079FF40234FF4C07241493046B460F46196
:1011A000B462C6E905324FF40062C6E9082A4FF07E
:1011B000020A0722C6E900140DA9CDF84CA0C6E921
:1011C0000398CDE90DA2CDE90F92CDE911BA1CF03B
:1011D000F3FE29464FF6FF7230460194C5E90078C8
:1011E000C5E902741CF008FF38461AF035FD29469F
:1011F0004FF6FF723046C5E900A8C5E902741CF03D
:10120000FBFE082329464FF6FF723046C5E900B8B9
:10121000C5E902341CF0F0FE4FF40C734FF6FF7278
:10122000294601933046019BAF60EB60C5E9009809
:101230001CF0E2FE40F22B7130461A4D1CF0FBFE12
:101240004FF0204343F2D202642040F215261A6088
:101250001AF002FD144B154A28462C62C5E90023FA
:10126000C5E9024724E000BF1B00000300ED00E0D9
:101270000038024000040240D80200205C01002037
:1012800000280240002002400008024000180240EE
:10129000180300200030024000B00240400100204E
:1012A000400100A08402002068474020005C00400C
:1012B000C5E90444C5E906441BF0D6F92146284691
:1012C0001BF0F4FB214628463E4D1BF015FC342252
:1012D00021460DEB020044F093FB3B4B28213520C7
:1012E00040F2352C2C61AC8685F83640C5E90034D7
:1012F0000923C5E905130B23C5E9070340F21B13B6
:101300002846C5E9096340F21D13C5E90244C5E951
:101310000BC31BF09DFCFF214FF4806E4FF4F07265
:101320004FF4887328460D941893ADF864408DF8F7
:101330006640CDE912140521CDE914E14FF040419A
:10134000CDE90E24CDE9161222460DA9CDE9103AB9
:101350001BF049FD1D481E4B0462C0E90037C0E97F
:1013600002984FF4A0634FF01808C0E90644C0E9A2
:1013700004831BF09BFE1AF0CBFA1AF011FA5C20E2
:101380001AF0CEFC00F05EFB00F088FB00F085FB5D
:101390001DF080F80F4A21460F481DF0B5F80F4B9D
:1013A0000F4A214618600F481DF0AEF80E4B0F4A49
:1013B000214618600E481DF0A7F80E4B18601DF06E
:1013C00083F8FEE7DC010020006801409001002066
:1013D000001000A044690408890E0008580100208C
:1013E00020690408AB1A000854010020FC680408B6
:1013F00051350008500100200268034B9A4201D188
:101400001AF018BC704700BF001000407047000081
:101410000D4B82B00F216FF001001A6C42F0805228
:101420001A641A6C02F080520092009A5A6C42F4CC
:1014300080425A6400225B6C03F480430193019B59
:1014400002B01AF02DBC00BF00380240026882B022
:10145000084B9A420BD1D3F8302803F5006342F4CD
:1014600080521A631B6B03F480530193019B02B0FB
:10147000704700BF003002400E4B07B502689A4229
:1014800015D1A3F5F04305215A201A6B42F400024E
:101490001A6300221B6B03F400030193019B1AF0F3
:1014A000FFFB5A2003B05DF804EB1AF02BBC03B02D
:1014B0005DF804FB00B0024010B5A8B00446142249
:1014C000002102A844F09CFA8422002107A844F0DD
:1014D00097FA2268174B9A422AD14FF4803307A813
:1014E00007931CF0DFFA08B1FFF790FF124C4FF49E
:1014F000C07201211148236B43F080032363236BE7
:1015000003F080030093009B1223CDE90223032301
:10151000CDE90413042302A906931AF0F9FD236C04
:1015200043F400032364236C03F400030193019B41
:1015300028B010BD005C004000380240001C024092
:10154000026808B5094B9A420FD1094A802109481F
:10155000136C23F4000313641AF0BEFE4FF4807181
:101560000448BDE808401AF0B7BE08BD005C004062
:1015700000380240001C024070B5ACB00446142292
:10158000002106A844F03CFA842200210BA844F074
:1015900037FA2268484B9A4240F08C800823052095
:1015A00001240B934FF4C07310930223CDE9113043
:1015B0004FF400330BA8CDE915431CF073FA08B1C2
:1015C000FFF724FF3D4B002402250E265A6C06A986
:1015D0003B4842F080625A645A6C02F0806200928A
:1015E000009A1A6B42F010021A631A6B02F0100292
:1015F0000192019A1A6B42F400721A631A6B02F498
:1016000000720292029A1A6B42F480621A631A6B99
:1016100002F480620392039A1A6B42F040021A634A
:101620001A6B02F040020492049A1A6B42F4807220
:101630001A631B6B03F480730593059B1023CDE99C
:101640000635CDE908440A961AF062FD4EF6FF739E
:1016500006A91C480A96CDE90635CDE908441AF0DA
:1016600057FDF72306A918480A96CDE90635CDE9B6
:1016700008441AF04DFD4FF4805306A91348CDE9F4
:1016800006350923CDE908440A931AF041FD4FF4C9
:10169000464306A90E480A96CDE90635CDE9084429
:1016A0001AF036FD5820224605211AF0F9FA582082
:1016B0001AF028FB2CB070BD0068014000380240D1
:1016C000001002400024024000280240001802409E
:1016D00000200240142200212DE9F0418AB0044686
:1016E0000DEB020044F08CF922682C4B9A4251D148
:1016F0002B4B0225032409269A6B4FF0040805A9F9
:10170000284842F0020200279A639A6B02F0020214
:101710000192019A1A6B42F010021A631A6B02F0DE
:1017200010020292029A1A6B42F002021A631A6BBA
:1017300002F002020392039A1A6B42F008021A6343
:101740001B6B03F008030493049BCDE90585CDE9E9
:1017500008461AF0DDFC402305A91348CDE90535FC
:101760000A23CDE9077409931AF0D2FC05A90E48A3
:101770000996CDE90585CDE907741AF0C9FC4FF447
:10178000605305A909480996CDE90535CDE90774E7
:101790001AF0BEFC0AB0BDE8F08100BF001000A046
:1017A000003802400010024000040240000C0240D9
:1017B000026808B50B4B9A4213D10B4A04210B481F
:1017C000936B23F0020393631AF086FD44210848CB
:1017D0001AF082FD4FF460510648BDE808401AF047
:1017E0007BBD08BD001000A0003802400010024080
:1017F00000040240000C0240F0B5002387B00393C0
:10180000294B1E68002E4DD10122022703250C24EE
:101810001A6001A9254B26489A6B42F001029A638F
:101820009B6B03F001030093009B4FF68373CDE99C
:101830000454CDE901371AF06BFC48F2331301A9C7
:101840001C480594CDE90137CDE903651AF060FC29
:101850004CF2037301A918480594CDE90137CDE98D
:1018600003651AF055FC4FF63F0301A91348059490
:10187000CDE90137CDE903651AF04AFC282301A917
:101880000F480594CDE90137CDE903651AF040FC16
:10189000082301A90B480594CDE90137CDE903657B
:1018A0001AF036FC07B0F0BD3C03002000380240BF
:1018B0000010024000180240000C024000140240D8
:1018C000001C024000080240214B1A6C42F010023A
:1018D00070B51A6488B01B6C054601A903A803F013
:1018E00010030293029B1CF0BFF8069B4BBB1CF03D
:1018F000ABF8184E184B336040F2E733F360174BE8
:10190000B0FBF3F3013B3046736000233361B360F7
:10191000B3611CF001FD044680B930461CF0A4FB05
:10192000044658B936201AF0EDF90F2D0DD822468D
:10193000294636201AF0B4F9094B1D60204608B03C
:1019400070BD1CF081F84000D3E70124F6E700BF2A
:1019500000380240400300200010004040420F00C9
:101960003C0000207047FEE7FEE7FEE7FEE7704719
:1019700001481CF0BBBB00BF4003002001481BF026
:10198000D5B900BFDC01002001481AF0F0BA00BF51
:10199000D80200200120704708B544F0E5F816236E
:1019A00003604FF0FF3008BD08B544F0DDF81623A2
:1019B0000360FEE770B50D4614460E46731B9C424D
:1019C00001DC204670BDAFF3008006F8010BF5E79F
:1019D00070B50D4614460E46731B9C4201DC204632
:1019E00070BD16F8010BAFF30080F5E74FF0FF3044
:1019F00070474FF4005300204B6070470120704740
:101A0000002070470B4A0346116810B509B90A490E
:101A10001160106809490A4C0344091B8B4206D91E
:101A200044F0A2F80C2303604FF0FF3010BD1360A8
:101A3000FCE700BF8C030020606E01200000052041
:101A4000000A000070470000DFF834D0002103E0F6
:101A50000C4B5B58435004310B480C4B42189A42D4
:101A6000F6D30B4A02E0002342F8043B094B9A42AA
:101A7000F9D319F0E5FF44F07DF8FFF757FA704706
:101A800000000520F8BB040800000020240100200D
:101A900024010020606E0120FEE7704708B501F0C8
:101AA00031F9BDE8084001F0B3B801F02DB9406844
:101AB00070474160704700004FF0E022D2F8FC3DD3
:101AC00043F08073C2F8FC3D054B064AD3F8B01FC3
:101AD0000A43C3F8B02F1A6842F001021A60704737
:101AE000001000E055CEACC5521A02EB5302B2FB17
:101AF000F3F07047014B5868704700BF001000E0DA
:101B0000704710B504460C2142F077FD204610BD09
:101B1000036810B51B69044631B19847A268636831
:101B20009B1A0344636010BD9847A060FBE7000068
:101B3000024B7020024A1360DB6818471000002037
:101B400090030020704710B50446042142F055FD73
:101B5000204610BD73B50E4E0D461446336813B9BA
:101B6000002002B070BD1B69702098470028F7D094
:101B70003368702001AA0DF106015B699847BDF832
:101B8000043001202B60BDF806302360E9E700BF78
:101B9000900300207FB501238DF817204FF47A724F
:101BA000CDE901320DF1170200920A4601460548BF
:101BB0001AF0C4FD10B103481AF0A7FD07B05DF894
:101BC00004FB00BF840200207FB500230A464FF4C7
:101BD0007A718DF817300123CDE901310DF117012C
:101BE0000091014605481AF083FE10B103481AF02F
:101BF0008CFD9DF8170007B05DF804FB84020020FF
:101C0000032823D8DFE800F0020B131A104B102131
:101C100010481A68B2FA82F252091AF0FDBB0C4B56
:101C200040215A68B2FA82F252090B48F5E7084B94
:101C300080219A68B2FA82F25209F6E7044B4021F9
:101C40000648DA68B2FA82F25209E6E7704700BF46
:101C500094030020000402400008024000180240E3
:101C6000032823D8DFE800F0020B131A104B1021D1
:101C700010481A68003A18BF01221AF0CDBB0C4B6D
:101C800040215A68003A18BF01220B48F5E7084B7B
:101C900080219A68003A18BF0122F6E7044B4021E0
:101CA0000648DA68003A18BF0122E6E7704700BF2D
:101CB0009403002000040240000802400018024083
:101CC00003280FD8DFE800F00206090B10210648B0
:101CD0001AF0A7BB40210548FAE78021FBE7402125
:101CE0000348F5E7704700BF0004024000080240C7
:101CF0000018024008B5032813D8DFE800F0020AF4
:101D00000D0F102108481AF081FB431E584258411C
:101D100008BD40210548F6E78021FBE74021044843
:101D2000F1E70020F1E700BF000402400008024094
:101D30000018024070B5084D00240126E0B2FFF7FC
:101D4000D9FF18B12B68012B18BF2E600134043560
:101D5000052CF3D170BD00BF94030020012380F84F
:101D6000781080F87930704700207047416400395E
:101D7000024B18BF01211970704700BF2762012074
:101D800000207047836B0BB10846184770474FF629
:101D9000FF707047406803689B69184770470000F0
:101DA00038B5044601F0FEF8084923682046084D7E
:101DB000D3F88C3098470023284684F84A30FFF740
:101DC0007BFE0123256184F8703038BD000000C01F
:101DD000A403002001F088B801F08CB870B501F0C0
:101DE0000BF910490023C1F88430BFF34F8FD1F8AD
:101DF000803043F6E074C3F3C900C3F34E335B0194
:101E000003EA0406024646EA8275013AC1F87452B2
:101E1000F9D2203B13F1200FF2D1BFF34F8FBFF364
:101E20006F8F70BD00ED00E001F0E8B801F038B848
:101E300001F00ABA01F012BA01F03CB810B504463C
:101E40002CF0F2FE23682046D3F8AC30BDE81040F9
:101E500018472CF039B910B504467C2142F0CDFB6F
:101E6000204610BD90F834100D4B10B590F8784016
:101E70001A788C4209D03AB90A490B4A0888148862
:101E8000108001220C801A7010BD002AFCD0064A76
:101E90000449148808880C8010800022F3E700BFF2
:101EA000206201201E6201201C62012070B50D46D7
:101EB000194635B9094B40F2D221094A094843F085
:101EC000E3FAC0E90F52003A074B18BF01221A701B
:101ED0000368BDE87040D3F88C301847A86904083F
:101EE000E06904082E6A04082662012008B5094B3F
:101EF0001B888B4203D8084B1B88934205D9074B9C
:101F00009E21074A074843F0BFFA074B1980074B49
:101F10001A8008BD1C6201201E620120736A040839
:101F2000D66A04082E6A0408226201202462012075
:101F3000034690F87A0018B1586803681B68184780
:101F400070470000014608B5034B186801B1012134
:101F50002CF084FE012008BD28620120034B0022E2
:101F60005A609A60024A1A60704700BFA4030020BA
:101F7000706904080121002208B508461CF0CEFB58
:101F80000A4B186028B90A4B28210A4A0A4843F02C
:101F90007BFA0022042101201CF08AFC074B186008
:101FA00018B9074B2C21034AF0E708BDB403002001
:101FB000F46B04083D6C04086C6C0408B00300204A
:101FC000B96C0408024B4FF0FF3118681CF0FEBBDF
:101FD000B4030020014B18681CF034BCB40300208B
:101FE000024B002118681CF0F1BB00BFB4030020B5
:101FF000FFF7F0BF0023034803491A4600681CF0AE
:102000009DBC00BFB00300200400002013B50023D6
:10201000074C01A91A4620681CF0D2FC4FF0FF3390
:10202000002201A920681CF0CBFC02B010BD00BF4B
:10203000B003002003685B6C1847012070470368F9
:102040009B6A18470D4B82B01A6B42F400021A6368
:102050001A6B02F400020192019A1A6942F400021A
:102060001A611A6922F400021A61054B054A1A61C5
:102070004FF08062044B9A6002B070470038024013
:10208000D80200201523000800E100E040F2EF3004
:1020900070470000054B4FF080620360044BC3F8AB
:1020A0008820BFF34F8FBFF36F8F7047586E0408BF
:1020B00000E100E010B504464FF45A61FFF7EAFF73
:1020C000204642F09AFA204610BD000008B50A28C2
:1020D00009D8DFE800F006100E08080808101010F4
:1020E0001000022008BD054B8621054A054843F033
:1020F000CBF90020F6E70120F4E700BFFB6C0408F1
:10210000166D0408616D040838B50C46887FFFF72A
:10211000DDFF174BA58AE28A586342EA054221692E
:102120005A64628BD963521B1A642568082D0ED13C
:102130009A611A6158620F4A207F42EA0062DA61AE
:10214000E2681A620C4A5961D9601A6038BD0022EF
:10215000D8611A61E1680A0A4809C1F3C40102F4AE
:10216000784200F4FC6002430A439A63034AECE7B6
:1021700000B0024009000100010202000102030058
:1021800008B50B280BD8DFE800F00612100A0A0A7F
:102190000A0808080808022008BD0520FCE7054BCE
:1021A0006521054A054843F06FF90020F4E7012056
:1021B000F2E700BFFB6C0408AC6D0408616D040815
:1021C0002DE9F04191F81D800C464046FFF7D8FFFD
:1021D000A77F05463846FFF7D3FF06463846FFF788
:1021E00075FFA18A628B434B521A1A649A61228B43
:1021F000521A1A61E28A586342EA014221695A641A
:102200006268D963DA602068802828D0227F0FD8DE
:10221000202866D0402864D004281AD045EA0265F8
:10222000344BB84545F40035DD6160D0324A44E0B6
:10223000B0F5807F04D0B0F5007FEFD12F4800E0EB
:102240002F4840EA0262DA61E2681A625E6259610E
:1022500032E045EA026242F40032DA61F6E7A06851
:10226000021DDA62227F45EA026545F40035DD6130
:102270005E625961017841B1012921D0214B4FF4AF
:102280008871214A214843F0FFF8DA69418822F435
:102290007F42013922F0100242EA01220121DA6173
:1022A000144BDA6942F02002DA61DA699206FCD452
:1022B00010229A600029B9D0154A1A60BDE8F08151
:1022C000B2F1FF01DA69408822F47F4218BF012190
:1022D000013822F0100242EA002242F01002DA61D4
:1022E000DEE745EA0262034B42F40032B5E740F212
:1022F0000122E2E700B002400102010009000200F1
:102300000A000200F66D0408106E0408616D0408EE
:1023100001020200024B1B68586803685B6918479A
:102320002862012070B504460A4B0C300026254671
:10233000602260602672667245F8203B29462CF0C8
:10234000E3FD04F55A63EE6024359D42FBD120463F
:1023500070BD00BF586E0408034B1A68D207FCD446
:1023600023229A60704700BF00B0024030B5104C85
:102370002568ED07FCD423250904FF2BA56041F057
:1023800001014FF0020565636164E0630AD0094909
:10239000656241EA0363E361074B22626061E060CA
:1023A000236030BDE561039BA363044BF8E700BFE6
:1023B00000B002400900010001000200010003001A
:1023C0004069704790F844007047036B23B9C06AB6
:1023D000003818BF0120704701207047806870479F
:1023E000043010B50C460FC884E80F0010BD7047CC
:1023F00008B5034A40F21221024B034843F044F867
:10240000A06E04080B8A0408FB6E040810B504468D
:10241000482142F0F2F8204610BD00002DE9F043BB
:102420001C46436BADF51F7D05460E461746002B37
:1024300037D0002203A8DFF8A890CDE9013224F0BC
:1024400091FB4FF4F4725021249024A81EF03FFB1E
:102450003A46314624A81FF093FA012124A81EF021
:1024600031FC022324A88DF8D8301EF0CCFCBDF836
:1024700098322B9ABDF89C629342A89F28BF1346BE
:10248000419A964203EB4308A7EB430728BF164641
:10249000479B9E4209D824A81EF036FC24A81EF0B3
:1024A00063FB0DF51F7DBDE8F083012201A924A87F
:1024B0001EF0F2FC6B6B03EB0800984201D83C4421
:1024C000E6E759789A78C90009EA022201F4FC612A
:1024D0000A4313F8031B42EAD10224F8022BECE76B
:1024E00000F8FFFF0A4A02600022C0E90522C0E9A5
:1024F0000722C0E90922C0E90B22C0E90D12C0E998
:102500000F2280F84420C0E90322C0E9012270476D
:10251000DC71040810B40C4611461A46036B3BB13B
:10252000036C806BE41A20445DF8044B43F070BAEE
:10253000C06AF8E7036B10B573B1036C826BC91AFC
:102540005318525C98785C780004DB7840EA0420E9
:10255000104340EA036010BDC36A5858FBE7036BA1
:1025600043B1036CC91A836B5A18585C527840EA1D
:1025700002207047C36A585A7047000070B504467D
:10258000006B0D461646D8B1E36B934208D209237F
:102590000D4A65210D4884F844300D4B42F074FF1C
:1025A0000368DB689847206B3246A16B03681B69A0
:1025B000984710B90D2384F84430A06B256470BD92
:1025C000E06A0844FBE700BF656F0408FB6E04087F
:1025D000526F04082DE9F843436904462BB9234B95
:1025E000AA21234A234842F04FFF08228169FFF7BE
:1025F000C5FFA16943F2300646F264370431204634
:10260000FFF798FFA3691844A36A00F108029A42F1
:1026100006D3012300206361236AA361BDE8F88328
:10262000636909300822013320F00101204663610B
:10263000A161FFF7A3FFD4F8189020464946FFF7A1
:102640008EFF09F1020180462046FFF788FF09F15D
:10265000040105462046FFF76DFFB045D2D1BD42CB
:10266000D0D10028CED00120D8E700BFA76F040842
:10267000F06F0408FB6E04082DE9F04F0446ADF539
:102680001F7D8A461646816908229846FFF776FF25
:10269000A7692046391DFFF74DFF07F108010246E3
:1026A00005462046FFF76AFF636B074633B93C4B8C
:1026B00040F2AB113B4A3C4842F0E6FE002203A840
:1026C000CDE9013224F04EFA4FF4F47250212490F7
:1026D00024A81EF0FCF92A46394624A81FF050F918
:1026E000012124A81EF0EEFA022324A88DF8D83088
:1026F0001EF089FBBAF90250479BAB4229D3BAF9C5
:1027000000904FEA4808BAF804702B9B08FB056656
:102710004F44BAF80250DFF894B03FB29F4228BF4E
:102720001F46BAF8063009EB490A1D44419B2DB2F9
:102730009D4228BF1D46479BAB4210D324A81EF0E4
:10274000E3FA24A81EF010FA01200DF51F7DBDE864
:10275000F08F012201A924A81EF09EFBCCE70122E4
:1027600001A924A81EF098FB626B49465244B94265
:1027700002F1030201D34644DDE712F8020C12F81D
:10278000013CC0000BEA032300F4FC60034312F891
:10279000030C43EAD00326F811300131E7E700BF0C
:1027A0002370040879700408FB6E040800F8FFFF2A
:1027B0000129036838BF0121DB6A70B50D46044664
:1027C0009847A84204D223682046DB6A984705460A
:1027D0006B1EE6691022204606EB031606F108017F
:1027E000FFF7CCFE06F110012046FFF7A3FE236A97
:1027F000043B0344C4E9055370BD00000021482296
:102800002DE9F0410446816180F84410FFF7B6FEDF
:10281000A6690423624A31462046FFF77BFE40B199
:102820000323604AF22184F844305F4B5F4842F052
:102830002BFE06F1080104235D4A2046A161FFF743
:1028400069FE30B10423574AFA2184F84430594BC9
:10285000ECE706F10C010423574A2046A161FFF77B
:1028600059FE074638B105234E4A40F2011184F85B
:102870004430524BDAE706F110012046FFF75AFECA
:10288000054620B94E4B40F20711464ACEE706F105
:10289000140804234B4A20464146FFF73BFE00281C
:1028A00049D0062384F844300423474A06F118012E
:1028B0002046FFF72FFE00283FD0072384F844303E
:1028C0004544424F0C2220462946FFF757FE05F1AA
:1028D000080604233A4620463146FFF71BFE94F8CB
:1028E0004430002848D0002B48D1A36AAB4249D8D5
:1028F00005F10C0304352046A3612946FFF71AFEB3
:102900003044294660622046FFF714FE0644042244
:1029100020463146FFF732FE04232D4A3146204639
:10292000FFF7F8FD002838D10123E6616361A36950
:102930002362BDE8F0810127B6E7002FC0D006F181
:1029400020012046FFF7F6FD4FF47A7306F13001BF
:10295000B0FBF3F060602046FFF7ECFD06F14001AC
:10296000A0602046FFF7E6FD06F14401E060204646
:10297000FFF7E0FD2061A3E7002BB9D00A2384F81C
:102980004430D6E7291D2046FFF7D4FD85190C22D7
:1029900020462946FFF7F2FD99E70B23EFE700BF3A
:1029A000D3700408F1700408D8700408FB6E0408A2
:1029B0001E710408237104083B7104084071040867
:1029C0005671040862710408677104086C71040888
:1029D00071710408C0E90A2100220263FFF70EBFEB
:1029E00010B5002304460846E3620B6821639B6828
:1029F0009847A0622046BDE81040FFF7FFBEF0B444
:102A0000069FBDF81050BDF8146032B12BB104958B
:102A1000CDE90567F0BCFFF701BDF0BC70470000D1
:102A20002DE9F04F9946436985B004460F4690461C
:102A30002BB9294B7721294A294842F025FD082244
:102A40008169FFF79BFDA66920463146FFF787FDA8
:102A5000B11C83462046FFF782FD311D8246204689
:102A6000FFF768FD06F10801A36A054642189A427D
:102A700026D243F230039B4517D146F264339A4580
:102A800013D190B10246A1612046FFF777FD0E9B5E
:102A900001462A462046CDF80080CDE901933B4609
:102AA000FFF7ADFF636901336361A3692B4405B987
:102AB00008330133626A23F001039342A36109D111
:102AC000012301206361236AA36180F0010005B046
:102AD000BDE8F08F0020F8E7A76F040876710408BE
:102AE000FB6E0408012070470C2070470C2303FB89
:102AF0000100083070470C2303FB010008307047C9
:102B00000120704741F2C410704741F2C41303FB27
:102B100001000830704741F2C41303FB0100083084
:102B20007047012070471020704700EB01100830FB
:102B3000704700EB011008307047084600F01ABFDC
:102B4000034B10B5044603602BF016F8204610BD69
:102B50008472040810B50446FFF7F2FF14212046E2
:102B600041F04BFD204610BD034B10B504460360F9
:102B70002BF002F8204610BD5072040810B5044630
:102B8000FFF7F2FF41F2CC11204641F036FD20461E
:102B900010BD0000034B10B5044603602AF0ECFFA3
:102BA000204610BD1C72040810B50446FFF7F2FF62
:102BB0001821204641F021FD204610BD094B10B5DB
:102BC0000446036000F58F501830FFF7B9FF04F199
:102BD0002C00FFF7C9FF04F11400FFF7DBFF2046CC
:102BE00010BD00BFB872040808B50248FFF7E6FF41
:102BF00008BD00BF8412002010B50446FFF7DEFFB9
:102C000041F26C31204641F0F8FC204610BD000036
:102C10002DE9F34100F034FD0024054600F034FDB9
:102C20002346014622462846009433F039FB274BC1
:102C3000274A2046274D1A6018F09AFC264B274A4F
:102C400027489A6033F094FA2B68BFF35B8FDB0759
:102C500036D4284641F0D3FC90B3224C224F234B6C
:102C600004F1140007F1180604F12C0823606060D9
:102C7000C4F80880E76026612AF080FF1C4B4046BC
:102C800063612AF07BFF1B4B3846E3622AF076FF34
:102C900004F58053184A03F50370C3F8F82118F0BF
:102CA000DDFC224607F11401304618F0CDFC304619
:102CB00000F060FE114842F005FC284641F0ABFCF4
:102CC0000F4802B0BDE8F041FFF76AB88C620120FE
:102CD0003404002080120020540400203804002016
:102CE00008000020841200207C240020B872040810
:102CF0001C7204085072040884720408E92B00084E
:102D0000B80300207047000001482BF046BA00BF0E
:102D1000B803002070B5244E244B254C3046254D79
:102D20002360FFF7FFFA284637F094FD224831F080
:102D300087FB224B00224FF4807121481A8683F8CA
:102D400058205A6683F870205A67DC60C3E9121273
:102D50001C49C3E91A121C4999671C490B604FF4BE
:102D6000F07101801A4801804FF488711948C3E955
:102D70000422C3E90622C3E90822C3E90A22C3E9FF
:102D80000E22C3E91022C3E91422C3E91722C3E9C2
:102D900001650180104883F8342001800F490A70D2
:102DA0000F4A1A6070BD00BFDC0400209869040857
:102DB0007C1200205404002038040020B8030020B6
:102DC0001C620120010000010000010128620120B5
:102DD000226201201E620120246201202062012063
:102DE000246B04080148FFF755B900BFDC0400203C
:102DF0000020704781807047C18070470181704713
:102E0000418170477047704770477047704710B4F2
:102E1000C4880368121B84885B6D091B12B25DF8BD
:102E2000044B09B218474FF6FF7383814FF0FF330D
:102E300003621368C36110607047002070478B887D
:102E4000838001207047704780F82610704790F803
:102E500026007047002210B5B1F90840B1F90A10F8
:102E6000028042808480C18010BD002202804280A6
:102E70008280C28070470177704780ED080A7047F2
:102E800080F82410704780F82510704701207047A3
:102E9000983070478C30704784307047704700001E
:102EA000034B902283F85A2383F85823704700BFBE
:102EB00000E100E0094A0A49D3680A48C3F30A035B
:102EC000013B9BB20B801169C1F30A0101390180FA
:102ED0001364536B43F00103536370470068014070
:102EE000F2250020F0250020014BD3F8AC007047FC
:102EF00000680140024B0122C3F8AC105A627047CF
:102F000000680140124A5369DB0370B51ED50023E7
:102F1000C2F88430BFF34F8FD2F8803043F6E074AC
:102F2000C3F3C900C3F34E335B0103EA0406014651
:102F300046EA81750139C2F87452F9D2203B13F187
:102F4000200FF2D1BFF34F8FBFF36F8F70BD00BF63
:102F500000ED00E07047704770473823002201FB06
:102F60000333C25490F838300BB9036C8364704754
:102F7000704780F84C10704710B504462C2141F082
:102F80003CFB204610BD10B50446582141F035FBEE
:102F9000204610BD10B50446BC2141F02EFB204652
:102FA00010BD000038B504462BF0E3F823685D6ED1
:102FB00030F018F901462046A8472368084A204601
:102FC000D3F888500023A2F57F31A847054B064A65
:102FD0005A60064A1A649A644FF4FF225A6438BD54
:102FE00000F807C0B42600200C27002000F40BC016
:102FF0002BF0A6B82BF0B0B82BF06CB82BF0DBB9E7
:1030000090F8252012B103685B69184770470000EB
:1030100008B531B1044B40F29711044A044842F01C
:1030200033FA90F8390008BDC4720408D872040855
:103030006574040810B531B1064B40F29111064A8F
:10304000064842F021FA406811460368BDE8104086
:103050001B6B1847C4720408A7740408657404083D
:1030600008B529B1034B7A21034A044842F00CFA0F
:10307000006908BDC4720408587604086574040821
:1030800008B529B1054B8321054A064842F0FCF9F1
:1030900041618160C0E9063208BD00BFC472040806
:1030A000107804086574040810B5044629B1274B4C
:1030B000A421274A274842F0E7F9052A34D8DFE857
:1030C00002F003292F34393E406803681B69984792
:1030D00050B34FF0FF31606D1BF0C4FA00230122A2
:1030E00094F83E1084F83B3084F83920A360636183
:1030F00001B1226284F83E306362E36A2BB9012396
:10310000206D84F83A301BF09DFB606DBDE81040E7
:103110001BF0D8BA002380F8393084F83E3003E041
:10312000036200238360436110BD03620023836058
:103130004361F2E7002380F839300123EDE7003BDB
:1031400018BF012380F83D30EEE700BFC4720408C9
:10315000CF7904086574040890F825201AB190F816
:10316000242002B11860704770B50446164629B194
:10317000314BE721314A324842F086F990F8393034
:1031800033B1304B1B6893F86B20436913444361A0
:10319000E36A002B4DD0E169D4E905325343A268BC
:1031A0004A43934220D2236A002B42D04FF0FF3192
:1031B000606D1BF057FA236A0BB10023E362E36AE8
:1031C000FBB90125606D1BF07DFA94F839300BB91D
:1031D000236A3BB1E36A2BB90123206D84F83A30AE
:1031E0001BF030FB284670BD94F84C000028DDD061
:1031F0009B1AB3FBF1F2994298BF02F1FF3262626F
:10320000D4E7002294F83C50A3623046E262E268C0
:103210002261A2680132A260336333685B69984718
:10322000002DCED194F83D30002BCBD184F839500D
:10323000C8E70125C9E700BFC4720408A67B0408DB
:103240006574040828620120034B4FF080629A6085
:103250004FF080729A60704700E100E0084B4FF039
:103260008062C3F88820BFF34F8FBFF36F8F4FF09A
:103270008072C3F88820BFF34F8FBFF36F8F704702
:1032800000E100E038B5034690F8380038BB012271
:103290009860D8609A634FF4807258619A874FF4AF
:1032A000F0729861D861186258629862D8621863A7
:1032B000586383F83E00CA864FF4887281F8340060
:1032C0000A8708639A6C186102F5FF24D3E9101588
:1032D00029448C420AD9084B5821084A03E0084B7C
:1032E00040F2F511074A084842F0CEF81A6302F599
:1032F0007F329C645A6338BD047F0408447F04080D
:103300004A7D04087A7D040865740408002370B5BA
:10331000124E05468380124B0360336893F85820A1
:103320000AB1D86C00B998680368DB6A98473368BB
:10333000B0FA80F4D86C640930B10368DB6A98474E
:10334000002808BF44F001042CB9064B2C21064A82
:10335000064842F099F8284670BD00BF2862012057
:10336000EC810408EA80040848810408818104088B
:1033700070B5244E3568BFF35B8F15F001053FD162
:10338000304641F03CF900283AD01F4C1F4B04F165
:1033900034002561E584A562A585C4E90035C4E94A
:1033A000025531F0ACFA04F158002DF0ABF9184B8E
:1033B0002046A365174B40F8843BFFF7A7FF164B49
:1033C0001648C4F884302433C4F89050C4F88C30C4
:1033D0006423C4F89C50C4F8A850C4E928350023DD
:1033E000C4F8AC30C4F8B030C4F8B430C4F8B83065
:1033F0000B4BC4F8983042F065F8304641F00BF9B9
:10340000014870BDF4250020F825002084AE040892
:103410000C8204088482040838AE04089D2E00083B
:1034200018AE040810B5144C236823B3134B144A88
:103430001B6C11888B4213D1124B198819F000FDB7
:10344000226892F86A30013382F86A30FEF7D2FDC2
:1034500020682BF0E9FB0020BDE81040FEF7D0BB50
:1034600019F0EEFC206803681B6A98470020BDE84D
:103470001040FEF7F5BB10BD286201200068014036
:10348000F2250020F02500202DE9F74304464FF4F3
:10349000707894F83A304FF0FF31002B31D0606DE6
:1034A0001BF0E0F8276BA36ABB4200D1676B266A6A
:1034B000656856B32B68314628465B6A98470023F7
:1034C000236284F83B30606D1BF0FCF82B684FF4EE
:1034D000F0723946CDF8008028465E694FF4887353
:1034E000B0474FF0FF310646606D1BF0BBF894F813
:1034F0003B30E3B1002384F83B30606D1BF0E2F811
:10350000C7E7206D1BF062F9C3E7636A002BDAD0CE
:103510002B682846D3E909939847616A01442846F5
:10352000C847A368626A66621344A360CBE7E76298
:103530005EB12B6828469B6A984701380023E060FB
:1035400084F83C6084F83A30D7E70120F6E70000C1
:10355000014808B5FFF798FFB4260020036804224D
:1035600070B504465E6A00230D46B0474FF0FF3148
:10357000606D1BF077F8382303FB0542D16A09B16F
:103580000021D16203FB0545012385F83B30002370
:1035900085F83930606DBDE870401BF093B838B5E0
:1035A00000EB810304460D46114658680368DB684A
:1035B000984729462046FFF7D1FF38BD70B50D4624
:1035C0001146044600EB85025068026896681A4668
:1035D000B04729462046FFF7C1FF70BD38B51649F0
:1035E00000251648FEF77EFF154C164B01202A4693
:1035F000294623604FF48073A564A38784F84C00A8
:1036000084F83E50C4E91055C4E91455C4E9015585
:10361000C4E90355C4E90555C4E90755C4E909558A
:10362000C4E90B55C4E90D551BF078F82065284610
:103630001AF0D6FF606538BD542700200C27002003
:10364000B4260020D0820408704710B50446042137
:1036500040F0D3FF204610BD012908B506D002294D
:1036600008D059B917F0C2FF006808BD17F0BEFFB7
:103670004068FAE717F0BAFF8068F6E70020F4E741
:10368000004870471C8304080120704713B50024CC
:1036900051B1036801AA01948DF803409C680DF1B3
:1036A0000303A04702B010BD0846FBE7C08970477E
:1036B000008A7047C088704780887047807A00F021
:1036C0007F007047807AC009704700207047000073
:1036D0009FED010A704700BF00000000704770476F
:1036E00000F598730868496803C3704770477047CE
:1036F0004160704770470000064BC0F84801C0F8B1
:103700004C310023C0F8503100F5A273C0F84031AD
:10371000704700BFB9370008012303727047704734
:10372000704710B441680346C2689B68541001EBAF
:103730006200D20748BF0A595DF8044B48BFD3580E
:1037400018470346406830B19A681AB9D86800F043
:10375000010070470120704710B504460C2140F06D
:103760004CFF204610BD10B50446102140F045FF27
:10377000204610BD10B504464FF4AE7140F03DFF39
:10378000204610BD10B52FF02DFD0368BDE8104098
:10379000DB6B184710B50446D0F8400158B10368F8
:1037A000DB68984738B1D4F8400103689B689847B4
:1037B0000023C4F8403110BD2DE9F14FD0E9556A1E
:1037C0000746B06803681B6A984741F2C3139842E2
:1037D00005D8444BA321444A444841F055FE706843
:1037E00003681B6A98470F2803D8414BA4213E4A1F
:1037F000F2E7F06803681B6A98470B2803D83D4B33
:10380000A521394AE8E7DFF8F4902FF0EBFC04300B
:103810002FF00DFDD9F8000010B10368DB68984760
:10382000D9F8000010B103681B689847DFF8D08012
:10383000D8F8000010B103685B699847D7F83C01DD
:1038400010B103685B689847D8F8000010B10368AE
:103850001B689847D7F83C0110B103689B689847EC
:10386000F06800214FF0000B03685B6A9847224B19
:103870000446C0F804B080F808B059460360B06848
:1038800003685B6A9847054617F01CFF7068594645
:1038900003685B6A98470646294617F0F1FE331D18
:1038A000C7F83C612846C9F80040C8F80050CAF87B
:1038B00000302B68C6F808A0DB68EE6398473368D1
:1038C00030461B6898472146284631F049FD236859
:1038D00020461B699847236820465B6901B0BDE814
:1038E000F04F184730830408BE830408908404080E
:1038F000D78404087A85040894860408706201203D
:103900006C620120044B1B6893F858200AB1D86CF4
:1039100000B99868704700BF2862012070B504465E
:1039200016460D462FF024FD0E4B00211C600E4B59
:1039300023600E4BC4E951310D4B1868C4E9531193
:103940000368C4E94F119B68C4E955659847FFF7C0
:10395000D9FF38F0B0FDFFF7D5FF38F027FE20463D
:1039600070BD00BF7C6201204086040828860408E0
:1039700028620120064BC0F84801C0F84C310023F2
:10398000C0F8503100F5A273C0F84031704700BF55
:10399000B9370008406A7047806A704770478B8863
:1039A000C069DB0A0A6850F823001044704710B55C
:1039B0000446BAB1107B68B1537BD27A1B0203F480
:1039C000E0631A43236A03EB82031A888A4202D116
:1039D00093F9020010BD05D80138043380B20028E5
:1039E000F3D1F7E70020F5E710B504462C2140F0AD
:1039F00004FE204610BD000030B58BB00446BDF873
:103A000060500895BDF85C5007959DF8505006959C
:103A10009DF84C5005959DF8485004959DF84450EC
:103A200003959DF8405002959DF83C500195BDF8D6
:103A30003850009531F020F8064B20462360159B46
:103A4000E361169B2362199B63621A9BA3620BB00E
:103A500030BD00BFB8860408806A70477047704761
:103A600070477047704780F82C10704710B4036897
:103A7000046BD3F8A430624361435DF8044B1847EC
:103A8000D0ED0C7A0368F8EEE77A10B420EE270A3E
:103A9000D3F8A440B5EEC00AF1EE10FA1ADBB6EE88
:103AA000007A30EE070ABDEEC07A17EE101A60EE0B
:103AB000A70AF5EEC00AF1EE10FA1EDBF6EE007A68
:103AC00070EEA70AFDEEE07A17EE902A23465DF825
:103AD000044B1847BDEEC07AF8EEC76A17EE103AED
:103AE000013B30EE660AF7EE086A30EE260ABDEEBC
:103AF000C00A10EE101A1944D9E7FDEEE07AB8EECC
:103B0000E77A17EE903A013B70EEC70AB7EE087AF3
:103B100070EE870AFDEEE00A10EE902A1A44D5E70F
:103B200010B40368046BD3F8B03062435DF8044B03
:103B30001847D0ED0C7A0368F8EEE77A10B427EE58
:103B4000800AD3F8B040B5EEC00AF1EE10FA0BDBF4
:103B5000F6EE007A30EE270AFDEEC07A17EE902AD4
:103B600023465DF8044B1847FDEEC07AB8EEE77ABD
:103B700017EE903A013B30EE470AB7EE087A30EE86
:103B8000070ABDEEC00A10EE102A1A44E8E710B486
:103B90000368446BD3F8BC30624361435DF8044B67
:103BA0001847D0ED0D7A0368F8EEE77A10B420EEEE
:103BB000270AD3F8BC40B5EEC00AF1EE10FA1ADBC2
:103BC000B6EE007A30EE070ABDEEC07A17EE101A94
:103BD00060EEA70AF5EEC00AF1EE10FA1EDBF6EE73
:103BE000007A70EEA70AFDEEE07A17EE902A2346DF
:103BF0005DF8044B1847BDEEC07AF8EEC76A17EEC1
:103C0000103A013B30EE660AF7EE086A30EE260AFB
:103C1000BDEEC00A10EE101A1944D9E7FDEEE07AA5
:103C2000B8EEE77A17EE903A013B70EEC70AB7EEAE
:103C3000087A70EE870AFDEEE00A10EE902A1A4428
:103C4000D5E710B40368446BD3F8C03062435DF825
:103C5000044B1847D0ED0D7A0368F8EEE77A10B4FC
:103C600027EE800AD3F8C040B5EEC00AF1EE10FA94
:103C70000BDBF6EE007A30EE270AFDEEC07A17EE87
:103C8000902A23465DF8044B1847FDEEC07AB8EE43
:103C9000E77A17EE903A013B30EE470AB7EE087A22
:103CA00030EE070ABDEEC00A10EE102A1A44E8E70B
:103CB000D0F82C31026B002B07DB02EB430090FBAA
:103CC000F2F000EBD070401070476FF0010101FB83
:103CD0000320013890FBF2F000EBD070401040421E
:103CE0007047D0ED4B7A90ED0C0AF8EEE77AB8EE1B
:103CF000C00A87EE800A7047D0F82C017047D0F8D0
:103D00003031026B002B07DB02EB430090FBF2F03B
:103D100000EBD070401070476FF0010101FB0320F1
:103D2000013890FBF2F000EBD07040104042704739
:103D3000D0ED4C7A90ED0C0AF8EEE77AB8EEC00AB6
:103D400087EE800A7047D0F830017047D0F83431E0
:103D5000426B002B07DB02EB430090FBF2F000EB21
:103D6000D070401070476FF0010101FB0320013853
:103D700090FBF2F000EBD070401040427047D0ED65
:103D80004D7A90ED0D0AF8EEE77AB8EEC00A87EEAC
:103D9000800A7047D0F834017047D0F83831426B50
:103DA000002B07DB02EB430090FBF2F000EBD0703E
:103DB000401070476FF0010101FB0320013890FBB8
:103DC000F2F000EBD070401040427047D0ED4E7AD8
:103DD00090ED0D0AF8EEE77AB8EEC00A87EE800A99
:103DE0007047D0F838017047036870B50446D3F8BF
:103DF00088300D46164698472368324629462046A5
:103E0000D3F89030BDE8704018470368D3F8943079
:103E100018470368D3F8D43018470368D3F8E03064
:103E200018470368002A10B4D3F8A430046B0EDBE3
:103E300004EB420292FBF4F101EBD1714910B0F9AD
:103E40001E215DF8044B013A0A44494218476FF0BD
:103E5000010101FB0241013991FBF4F101EBD17148
:103E600049104942EBE70368D3F83C311847026B2D
:103E700003685143D3F8483118470368D3F84431F5
:103E80001847D0ED0C7A0368F8EEE77AD3F84821AA
:103E900027EE800AB5EEC00AF1EE10FA08DBF6EE66
:103EA000007A30EE270AFDEEC07A17EE901A10471E
:103EB000FDEEC07AB8EEE77A17EE903A013B30EEAD
:103EC000470AB7EE087A30EE070ABDEEC00A10EED8
:103ED000101A1944EBE7C0F83C1170470368D3F897
:103EE00050311847036810B5D3F85C310446984741
:103EF0000028236B07DB03EB400090FBF3F000EBA3
:103F0000D070401010BD6FF0010202FB003001388C
:103F100090FBF3F000EBD07040104042F2E70368F2
:103F2000D3F858311847036810B50446D3F85C310C
:103F3000984707EE900A94ED0C0AF8EEE77AB8EE8F
:103F4000C00A87EE800A10BDD0F83C017047026BB2
:103F500003685143D3F868311847D0ED0C7A0368F1
:103F6000F8EEE77AD3F8682127EE800AB5EEC00AAA
:103F7000F1EE10FA08DBF6EE007A30EE270AFDEEDD
:103F8000C07A17EE901A1047FDEEC07AB8EEE77AC5
:103F900017EE903A013B30EE470AB7EE087A30EE62
:103FA000070ABDEEC00A10EE101A1944EBE7C0F87C
:103FB00040117047036810B5D3F874310446984730
:103FC0000028236B07DB03EB400090FBF3F000EBD2
:103FD000D070401010BD6FF0010202FB00300138BC
:103FE00090FBF3F000EBD07040104042F2E7036822
:103FF00010B50446D3F87431984707EE900A94ED53
:104000000C0AF8EEE77AB8EEC00A87EE800A10BD17
:10401000D0F8400170470846704703680029026BDA
:10402000D3F8843110B504460EDB02EB410191FB5D
:10403000F2F101EBD171491009B220469847D4E959
:104040004F2302FB003010BD6FF0010000FB012187
:10405000013991FBF2F101EBD17149104942EBE7D3
:10406000006B7047406B70470368D3F848311847BE
:104070000368D3F85C311847026B03685143D3F8E7
:1040800014311847036870B5D3F818510446D0F8B6
:104090004461D3F8803198472B4656F820102046CB
:1040A000BDE870401847C1627047C06A7047012080
:1040B0007047704770477047704710B5044641F22B
:1040C000F00140F09AFA204610BD10B5044641F2C6
:1040D000C41140F092FA204610BD08B590F82C307B
:1040E0000BB1FEF78DFF08BD0A1E10B503DBB0F95A
:1040F0001E41944206DC084B40F23961074A0848E9
:1041000041F0C2F90368D0F84441D3F880319847B0
:1041100054F8200010BD00BF188704083B8704082E
:104120008A8704080B1E10B5044603DBB0F91E2174
:104130009A4206DC074B40F23361074A074841F0D8
:10414000A3F90368D3F884319847D4E94F2302FBDD
:10415000003010BD18870408E78704088A87040820
:104160002DE9F0411D460368044616461B6BBDF958
:10417000187098472368314620465B6B9847236840
:10418000294620469B6B9847236839462046DB6BBF
:10419000BDE8F04118470000094A4FF48071026001
:1041A00000228184FF21826280F82610C0E901226A
:1041B000C0E90322C0E90522C0E90722704700BF19
:1041C00098B2040837B501AB154630F053FD00280E
:1041D0002A4601994FEA40144FF0200004DB30F0EA
:1041E00068FD204403B030BD30F063FD201AF9E7CC
:1041F00070B5B0F81A310E46B0F91441B0F842501B
:104200002344ED1A2DB22C44691ED0E94D32013CF5
:10421000D21AF01AFFF7D6FFC0EB441070BD38B5C4
:1042200004460D46B4F81631B4F818110B44B4F82E
:104230004010C91AD0E94B0209B2121A281A0139E2
:10424000FFF7C0FFB4F9163100EB431038BD000092
:104250002DE9F04F044685B0002630F0D5FEA0468B
:10426000F04BE66304F1980548F8403B4046FFF701
:1042700093FF04F16C034FF0010B04F58C591846C1
:104280000393FFF789FF4FF47A71284609F1080973
:104290002CF0C0FDE44B40F2E7323146C4F89830D0
:1042A00004F5F473284604F5805704F1040AC4E9C0
:1042B0007736C4E975B6FFF7D9FBDC4B4846A4F85E
:1042C000E461C4F898302CF01DFAD94B32463146DF
:1042D000C7F8883102234046C7F8BC61C7F8C0312F
:1042E0004FF48873C7E96D6B00934FF4F073FFF7D9
:1042F00037FF4FF07F4341465046A36629F050FCFC
:104300004FF4887332463146039800934FF4F073AC
:10431000FFF726FFC74B03995046C4F8943029F0A5
:104320003FFC4FF4887332463146284600934FF4E1
:10433000F073FFF715FF324664212846FFF754FD5E
:104340004FF47A7231462846FFF790FB59462846CB
:10435000FFF78DFD31462846FFF7F9FD334632461B
:104360003146284600962CF007FD3346324631464A
:10437000284600962CF03EFCFE2231462846FFF7E8
:1043800006FCAD4B6422D7F8B811C7F8B43104234A
:104390003046C7F8BC61A7F8C0312CF09FFD6423FC
:1043A000C7F8BC0149462846C7F8B8312CF02DFCA7
:1043B000D4ED337A9FEDA17AF8EEE77A67EE877A4B
:1043C000F5EEC07AF1EE10FACDF29981B6EE007AF0
:1043D00077EE877AFDEEE77A17EE901A28462CF0F2
:1043E000D6FDD4ED337A9FED967AF8EEE77A67EE54
:1043F000877AF5EEC07AF1EE10FACDF29481B6EE3E
:10440000007A77EE877AFDEEE77A17EE901A284663
:104410002CF0BDFDD4ED337A9FED8A7AF8EEE77A81
:1044200067EE877AF5EEC07AF1EE10FACDF28F8161
:10443000B6EE007A77EE877AFDEEE77A17EE901AFD
:1044400028462CF0A4FDD4ED337A9FED7F7AF8EE68
:10445000E77A67EE877AF5EEC07AF1EE10FACDF2E0
:104460008A81B6EE007A77EE877AFDEEE77A17EE6C
:10447000901A28462CF08BFDD4ED337A9FED737A99
:10448000F8EEE77A67EE877AF5EEC07AF1EE10FA89
:10449000CDF28581B6EE007A77EE877AFDEEE77A87
:1044A00017EE901A28462CF072FDD4ED337A9FED6A
:1044B000687AF8EEE77A67EE877AF5EEC07AF1EE81
:1044C00010FACDF28081B6EE007A77EE877AFDEEB3
:1044D000E77A17EE901A28462CF059FDD4ED337A7E
:1044E0009FED5C7AF8EEE77A67EE877AF5EEC07AB0
:1044F000F1EE10FACDF27B81B6EE007A77EE877A94
:10450000FDEEE77A17EE901A28462CF040FDD4ED28
:10451000337A9FED517AF8EEE77A67EE877AF5EE17
:10452000C07AF1EE10FACDF27681B6EE007A77EE2F
:10453000877AFDEEE77A17EE901A28462CF027FDD1
:10454000D4ED337A9FED457AF8EEE77A67EE877A15
:10455000F5EEC07AF1EE10FACDF27181B6EE007A86
:1045600077EE877AFDEEE77A17EE901A28462CF060
:104570000EFDD4ED337A9FED3A7AF8EEE77A67EEE6
:10458000877AF5EEC07AF1EE10FACDF26C81B6EED4
:10459000007A77EE877AFDEEE77A17EE901A2846D2
:1045A0002CF0F5FCD4ED337A9FED2E7AF8EEE77A15
:1045B00067EE877AF5EEC07AF1EE10FACDF26781F8
:1045C000B6EE007A77EE877AFDEEE77A17EE901A6C
:1045D00028462CF0DCFCD4ED337A9FED237AF8EEFC
:1045E000E77A67EE877AF5EEC07AF1EE10FACDF24F
:1045F0006281B6EE007A77EE877AFDEEE77A17EE03
:10460000901A28462CF0C3FCD4ED337A9FED177A2C
:10461000F8EEE77A67EE877AF5EEC07AF1EE10FAF7
:104620004CE000BFD889040848AF0408408804085B
:1046300010B20408141414FF1616C4FF98B25F4396
:10464000A52F6143B680624385A56343E59D64431E
:10465000C369654328096643367C66432BC36643BA
:104660005BDE664338CE66434B936643382E664323
:10467000B89F65439FE86443D7096443620463437A
:1046800057D96143E289604345175F43D4825D4354
:10469000F8CD5B432AFA5943F5085843F3FB5543D9
:1046A000CCD4534338955143FB3E4F43E3D34C4363
:1046B000C9554A438FC6474320284543CDF20F8151
:1046C000B6EE007A77EE877AFDEEE77A17EE901A6B
:1046D00028462CF05CFCD4ED337A1FED1B7AF8EE03
:1046E000E77A67EE877AF5EEC07AF1EE10FACDF24E
:1046F0000A81B6EE007A77EE877AFDEEE77A17EE5A
:10470000901A28462CF043FCD4ED337A1FED277A1B
:10471000F8EEE77A67EE877AF5EEC07AF1EE10FAF6
:10472000CDF20581B6EE007A77EE877AFDEEE77A74
:1047300017EE901A28462CF02AFCD4ED337A1FEDA0
:10474000327AF8EEE77A67EE877AF5EEC07AF1EE24
:1047500010FACDF20081B6EE007A77EE877AFDEEA0
:10476000E77A17EE901A28462CF011FCD4ED337A34
:104770001FED3E7AF8EEE77A67EE877AF5EEC07ABB
:10478000F1EE10FACDF2FB80B6EE007A77EE877A82
:10479000FDEEE77A17EE901A28462CF0F8FBD4EDE0
:1047A000337A1FED497AF8EEE77A67EE877AF5EE0D
:1047B000C07AF1EE10FACDF2F680B6EE007A77EE1E
:1047C000877AFDEEE77A17EE901A28462CF0DFFB89
:1047D000D4ED337A1FED557AF8EEE77A67EE877AF3
:1047E000F5EEC07AF1EE10FACDF2F180B6EE007A75
:1047F00077EE877AFDEEE77A17EE901A28462CF0CE
:10480000C6FBD4ED337A1FED607AF8EEE77A67EEF7
:10481000877AF5EEC07AF1EE10FACDF2EC80B6EEC2
:10482000007A77EE877AFDEEE77A17EE901A28463F
:104830002CF0ADFBD4ED337A1FED6C7AF8EEE77A0D
:1048400067EE877AF5EEC07AF1EE10FACDF2E780E6
:10485000B6EE007A77EE877AFDEEE77A17EE901AD9
:1048600028462CF094FBD4ED337A1FED777AF8EEDE
:10487000E77A67EE877AF5EEC07AF1EE10FACDF2BC
:10488000E280B6EE007A77EE877AFDEEE77A17EEF1
:10489000901A28462CF07BFBD4ED337A1FED837AF7
:1048A000F8EEE77A67EE877AF5EEC07AF1EE10FA65
:1048B000CDF2DD80B6EE007A77EE877AFDEEE77A0C
:1048C00017EE901A28462CF062FBD4ED337A1FEDD8
:1048D0008E7AF8EEE77A67EE877AF5EEC07AF1EE37
:1048E00010FACDF2D880B6EE007A77EE877AFDEE38
:1048F000E77A17EE901A28462CF049FBD4ED337A6C
:104900001FED9A7AF8EEE77A67EE877AF5EEC07ACD
:10491000F1EE10FACDF2D380B6EE007A77EE877A18
:10492000FDEEE77A17EE901A28462CF030FBD4ED16
:10493000337A1FEDA57AF8EEE77A67EE877AF5EE1F
:10494000C07AF1EE10FACDF2CE80B6EE007A77EEB4
:10495000877AFDEEE77A17EE901A28462CF017FBBF
:10496000D4ED337A1FEDB17AF8EEE77A67EE877A05
:10497000F5EEC07AF1EE10FACDF2C980B6EE007A0B
:1049800077EE877AFDEEE77A17EE901A28462CF03C
:10499000FEFAD4ED337A1FEDBC7AF8EEE77A67EED3
:1049A000877AF5EEC07AF1EE10FACDF2C480B6EE59
:1049B000007A77EE877AFDEEE77A17EE901A2846AE
:1049C0002CF0E5FAD4ED337A1FEDC87AF8EEE77AE9
:1049D00067EE877AF5EEC07AF1EE10FACDF2BF807D
:1049E000B6EE007A77EE877AFDEEE77A17EE901A48
:1049F00028462CF0CCFAD4ED337A1FEDD37AF8EEBA
:104A0000E77A67EE877AF5EEC07AF1EE10FACDF22A
:104A1000BA80B6EE007A77EE877AFDEEE77A17EE87
:104A2000901A28462CF0B3FAD4ED337A1FEDDF7AD2
:104A3000F8EEE77A67EE877AF5EEC07AF1EE10FAD3
:104A4000CDF2B580B6EE007A77EE877AFDEEE77AA2
:104A500017EE901A28462CF09AFAD4ED337A1FED0F
:104A6000EA7AF8EEE77A67EE877AF5EEC07AF1EE49
:104A700010FACDF2B080B6EE007A77EE877AFDEECE
:104A8000E77A17EE901A28462CF081FAD4ED337AA3
:104A90009FEDF37AF8EEE77A67EE877AF5EEC07A63
:104AA000F1EE10FACDF2AB80B6EE007A77EE877AAF
:104AB000FDEEE77A17EE901A28462CF068FAD4ED4E
:104AC000337A9FEDE87AF8EEE77A67EE877AF5EECB
:104AD000C07AF1EE10FACDF2A680B6EE007A77EE4B
:104AE000877AFDEEE77A17EE901A28462CF04FFAF7
:104AF000D4ED337A9FEDDC7AF8EEE77A67EE877AC9
:104B0000F5EEC07AF1EE10FACDF2A180B6EE007AA1
:104B100077EE877AFDEEE77A17EE901A28462CF0AA
:104B200036FAD4ED337A9FEDD17AF8EEE77A67EE74
:104B3000877AF5EEC07AF1EE10FACDF29C80B6EEEF
:104B4000007A77EE877AFDEEE77A17EE901A28461C
:104B50002CF01DFAD4ED337A9FEDC57AF8EEE77AA2
:104B600067EE877AF5EEC07AF1EE10FACDF2978013
:104B7000B6EE007A77EE877AFDEEE77A17EE901AB6
:104B800028462CF004FAD4ED337A9FEDBA7AF8EE89
:104B9000E77A67EE877AF5EEC07AF1EE10FACDF299
:104BA0009280B6EE007A77EE877AFDEEE77A17EE1E
:104BB000901A28462CF0EBF9D4ED337A9FEDAE7ABB
:104BC000F8EEE77A67EE877AF5EEC07AF1EE10FA42
:104BD000CDF28D80B6EE007A77EE877AFDEEE77A39
:104BE00017EE901A28462CF0D2F9D4ED337A9FEDC7
:104BF000A37AF8EEE77A67EE877AF5EEC07AF1EEFF
:104C000010FACDF28880B6EE007A77EE877AFDEE64
:104C1000E77A17EE901A28462CF0B9F9D4ED337ADA
:104C20009FED977AF8EEE77A67EE877AF5EEC07A2D
:104C3000F1EE10FACDF28380B6EE007A77EE877A45
:104C4000FDEEE77A17EE901A28462CF0A0F9D4ED85
:104C5000337A9FED8C7AF8EEE77A67EE877AF5EE95
:104C6000C07AF1EE10FACDF27E80B6EE007A77EEE1
:104C7000877AFDEEE77A17EE901A28462CF087F92E
:104C8000D4ED337A9FED807AF8EEE77A67EE877A93
:104C9000F5EEC07AF1EE10FACDF27980B6EE007A38
:104CA00077EE877AFDEEE77A17EE901A28462CF019
:104CB0006EF9D4ED337A9FED757AF8EEE77A67EE08
:104CC000877AF5EEC07AF1EE10FACDF27480B6EE86
:104CD000007A77EE877AFDEEE77A17EE901A28468B
:104CE0002CF055F9D4ED337A9FED697AF8EEE77A36
:104CF00067EE877AF5EEC07AF1EE10FACDF26F80AA
:104D0000B6EE007A77EE877AFDEEE77A17EE901A24
:104D100028462CF03CF9D4ED337A9FED5E7AF8EE1C
:104D2000E77A67EE877AF5EEC07AF1EE10FACDF207
:104D30006A80B6EE007A77EE877AFDEEE77A17EEB4
:104D4000901A28462CF023F9D4ED337A9FED527A4D
:104D5000F8EEE77A67EE877AF5EEC07AF1EE10FAB0
:104D6000CDF26580B6EE007A77EE877AFDEEE77ACF
:104D700017EE901A28462CF00AF9D4ED337A9FEDFD
:104D8000477AF8EEE77A67EE877AF5EEC07AF1EEC9
:104D900010FACDF26080B6EE007A77EE877AFDEEFB
:104DA000E77A17EE901A28462CF0F1F8D4ED337A12
:104DB0009FED3B7AF8EEE77A67EE877AF5EEC07AF8
:104DC000F1EE10FACDF25B80B6EE007A77EE877ADC
:104DD000FDEEE77A17EE901A28462CF0D8F8D4EDBD
:104DE000337A9FED307AF8EEE77A67EE877AF5EE60
:104DF000C07AF1EE10FACDF25680B6EE007A77EE78
:104E0000877AFDEEE77A17EE901A28462CF0BFF865
:104E1000D4ED337A9FED247AF8EEE77A67EE877A5D
:104E2000F5EEC07AF1EE10FACDF25180B6EE007ACE
:104E300077EE877AFDEEE77A17EE901A28462CF087
:104E4000A6F8D4ED337A9FED197AF8EEE77A67EE9B
:104E5000877AF5EEC07AF1EE10FACDF24C804DE093
:104E60006B7C424366C53F430B053D43563D3A4389
:104E700045703743D59F344303CE3143CAFC2E439C
:104E80001F2E2C43F463294334A02643C2E423435A
:104E900079332143298E1E4399F61B43816E1943B2
:104EA0008EF716435C9314437B4312436809104307
:104EB0008DE60D4346DC0B43D9EB094377160843D7
:104EC000405D06433BC104435A43034378E4014336
:104ED00058A50043520DFF42FA11FD42A059FB4272
:104EE00008E5F942C8B4F8423EC9F7429A22F742AF
:104EF000D6C0F642BAA3F642DFCAF642B6EE007A50
:104F000077EE877AFDEEE77A17EE901A28462CF0B6
:104F10003EF8D4ED337A1FED1A7AF8EEE77A67EEB1
:104F2000877AF5EEC07AF1EE10FACCF2F887B6EE99
:104F3000007A77EE877AFDEEE77A17EE901A284628
:104F40002CF025F8D4ED337A1FED267AF8EEE77AC7
:104F500067EE877AF5EEC07AF1EE10FACCF2F387BD
:104F6000B6EE007A77EE877AFDEEE77A17EE901AC2
:104F700028462CF00CF8D4ED337A1FED317AF8EE98
:104F8000E77A67EE877AF5EEC07AF1EE10FACCF2A6
:104F9000EE87B6EE007A77EE877AFDEEE77A17EEC7
:104FA000901A28462BF0F3FFD4ED337A1FED3D7AAB
:104FB000F8EEE77A67EE877AF5EEC07AF1EE10FA4E
:104FC000CCF2E987B6EE007A77EE877AFDEEE77AE3
:104FD00017EE901A28462BF0DAFFD4ED337A1FED46
:104FE000487AF8EEE77A67EE877AF5EEC07AF1EE66
:104FF00010FACCF2E487B6EE007A77EE877AFDEE0F
:10500000E77A17EE901A28462BF0C1FFD4ED337AD9
:105010001FED547AF8EEE77A67EE877AF5EEC07AFC
:10502000F1EE10FACCF2DF87B6EE007A77EE877AEF
:10503000FDEEE77A17EE901A28462BF0A8FFD4ED84
:10504000337A1FED5F7AF8EEE77A67EE877AF5EE4E
:10505000C07AF1EE10FACCF2DA87B6EE007A77EE8B
:10506000877AFDEEE77A17EE901A28462BF08FFF2D
:10507000D4ED337A1FED6B7AF8EEE77A67EE877A34
:10508000F5EEC07AF1EE10FACCF2D587B6EE007AE2
:1050900077EE877AFDEEE77A17EE901A28462BF026
:1050A00076FFD4ED337A1FED767AF8EEE77A67EE85
:1050B000877AF5EEC07AF1EE10FACCF2D087B6EE30
:1050C000007A77EE877AFDEEE77A17EE901A284697
:1050D0002BF05DFFD4ED337A1FED827AF8EEE77A9C
:1050E00067EE877AF5EEC07AF1EE10FACCF2CB8754
:1050F000B6EE007A77EE877AFDEEE77A17EE901A31
:1051000028462BF044FFD4ED337A1FED8D7AF8EE6C
:10511000E77A67EE877AF5EEC07AF1EE10FACCF214
:10512000C687B6EE007A77EE877AFDEEE77A17EE5D
:10513000901A28462BF02BFFD4ED337A1FED997A85
:10514000F8EEE77A67EE877AF5EEC07AF1EE10FABC
:10515000CCF2C187B6EE007A77EE877AFDEEE77A79
:1051600017EE901A28462BF012FFD4ED337A1FED7C
:10517000A47AF8EEE77A67EE877AF5EEC07AF1EE78
:1051800010FACCF2BC87B6EE007A77EE877AFDEEA5
:10519000E77A17EE901A28462BF0F9FED4ED337A11
:1051A0001FEDB07AF8EEE77A67EE877AF5EEC07A0F
:1051B000F1EE10FACCF2B787B6EE007A77EE877A86
:1051C000FDEEE77A17EE901A28462BF0E0FED4EDBC
:1051D000337A1FEDBB7AF8EEE77A67EE877AF5EE61
:1051E000C07AF1EE10FACCF2B287B6EE007A77EE22
:1051F000877AFDEEE77A17EE901A28462BF0C7FE65
:10520000D4ED337A1FEDC77AF8EEE77A67EE877A46
:10521000F5EEC07AF1EE10FACCF2AD87B6EE007A78
:1052200077EE877AFDEEE77A17EE901A28462BF094
:10523000AEFED4ED337A1FEDD27AF8EEE77A67EE60
:10524000877AF5EEC07AF1EE10FACCF2A887B6EEC6
:10525000007A77EE877AFDEEE77A17EE901A284605
:105260002BF095FED4ED337A1FEDDE7AF8EEE77A77
:1052700067EE877AF5EEC07AF1EE10FACCF2A387EA
:10528000B6EE007A77EE877AFDEEE77A17EE901A9F
:1052900028462BF07CFED4ED337A1FEDE97AF8EE48
:1052A000E77A67EE877AF5EEC07AF1EE10FACCF283
:1052B0009E87B6EE007A77EE877AFDEEE77A17EEF4
:1052C000901A28462BF063FED4ED337A9FEDF37AE3
:1052D000F8EEE77A67EE877AF5EEC07AF1EE10FA2B
:1052E000CCF29987B6EE007A77EE877AFDEEE77A10
:1052F00017EE901A28462BF04AFED4ED337A9FED34
:10530000E87AF8EEE77A67EE877AF5EEC07AF1EEA2
:1053100010FACCF29487B6EE007A77EE877AFDEE3B
:10532000E77A17EE901A28462BF031FED4ED337A47
:105330009FEDDC7AF8EEE77A67EE877AF5EEC07AD1
:10534000F1EE10FACCF28F87B6EE007A77EE877A1C
:10535000FDEEE77A17EE901A28462BF018FED4EDF2
:10536000337A9FEDD17AF8EEE77A67EE877AF5EE39
:10537000C07AF1EE10FACCF28A87B6EE007A77EEB8
:10538000877AFDEEE77A17EE901A28462BF0FFFD9C
:10539000D4ED337A9FEDC57AF8EEE77A67EE877A37
:1053A000F5EEC07AF1EE10FACCF28587B6EE007A0F
:1053B00077EE877AFDEEE77A17EE901A28462BF003
:1053C000E6FDD4ED337A9FEDBA7AF8EEE77A67EE30
:1053D000877AF5EEC07AF1EE10FACCF28087B6EE5D
:1053E000007A77EE877AFDEEE77A17EE901A284674
:1053F0002BF0CDFDD4ED337A9FEDAE7AF8EEE77A5F
:1054000067EE877AF5EEC07AF1EE10FACCF27B8780
:10541000B6EE007A77EE877AFDEEE77A17EE901A0D
:1054200028462BF0B4FDD4ED337A9FEDA37AF8EE45
:10543000E77A67EE877AF5EEC07AF1EE10FACCF2F1
:105440007687B6EE007A77EE877AFDEEE77A17EE8A
:10545000901A28462BF09BFDD4ED337A9FED977A76
:10546000F8EEE77A67EE877AF5EEC07AF1EE10FA99
:10547000CCF27187B6EE007A77EE877AFDEEE77AA6
:1054800017EE901A28462BF082FDD4ED337A9FED6B
:105490008C7AF8EEE77A67EE877AF5EEC07AF1EE6D
:1054A00010FACCF26C87B6EE007A77EE877AFDEED2
:1054B000E77A17EE901A28462BF069FDD4ED337A7F
:1054C0009FED807AF8EEE77A67EE877AF5EEC07A9C
:1054D000F1EE10FACCF26787B6EE007A77EE877AB3
:1054E000FDEEE77A17EE901A28462BF050FDD4ED2A
:1054F000337A9FED757AF8EEE77A67EE877AF5EE04
:10550000C07AF1EE10FACCF26287B6EE007A77EE4E
:10551000877AFDEEE77A17EE901A28462BF037FDD2
:10552000D4ED337A9FED697AF8EEE77A67EE877A01
:10553000F5EEC07AF1EE10FACCF25D87B6EE007AA5
:1055400077EE877AFDEEE77A17EE901A28462BF071
:105550001EFDD4ED337A9FED5E7AF8EEE77A67EEC2
:10556000877AF5EEC07AF1EE10FACCF25887B6EEF3
:10557000007A77EE877AFDEEE77A17EE901A2846E2
:105580002BF005FDD4ED337A9FED527AF8EEE77AF1
:1055900067EE877AF5EEC07AF1EE10FACCF2538717
:1055A000B6EE007A77EE877AFDEEE77A17EE901A7C
:1055B00028462BF0ECFCD4ED337A9FED477AF8EED9
:1055C000E77A67EE877AF5EEC07AF1EE10FACCF260
:1055D0004E87B6EE007A77EE877AFDEEE77A17EE21
:1055E000901A28462BF0D3FCD4ED337A9FED3B7A0A
:1055F000F8EEE77A67EE877AF5EEC07AF1EE10FA08
:10560000CCF24987B6EE007A77EE877AFDEEE77A3C
:1056100017EE901A28462BF0BAFCD4ED337A9FEDA2
:10562000307AF8EEE77A67EE877AF5EEC07AF1EE37
:1056300010FACCF24487B6EE007A77EE877AFDEE68
:10564000E77A17EE901A28462BF0A1FCD4ED337AB6
:105650009FED247AF8EEE77A67EE877AF5EEC07A66
:10566000F1EE10FACCF23F87B6EE007A77EE877A49
:10567000FDEEE77A17EE901A28462BF088FCD4ED61
:10568000337A9FED197AF8EEE77A67EE877AF5EECE
:10569000C07AF1EE10FACCF23A874DE0A635F74227
:1056A00043E3F742B7D2F842D102FA423572FB42E5
:1056B000521FFD426F08FF42D29500436EC3014363
:1056C000ED0B03431E6E0443BAE80543697A0743B2
:1056D000C121094347DD0A4371AB0C43A78A0E433E
:1056E000427910438E751243CE7D14433A9016438F
:1056F00001AB184348CC1A4332F21C43D81A1F435B
:1057000053442143B76C23431792254386B2274362
:1057100017CC2943E2DC2B4300E32D4392DC2F43DB
:10572000BCC73143ABA23343956B3543B9203743F4
:1057300063C03843E9483A43B6EE007A77EE877A99
:10574000FDEEE77A17EE901A28462BF020FCD4EDF8
:10575000337A1FED1A7AF8EEE77A67EE877AF5EE7C
:10576000C07AF1EE10FACCF2E686B6EE007A77EE69
:10577000877AFDEEE77A17EE901A28462BF007FCA1
:10578000D4ED337A1FED267AF8EEE77A67EE877A62
:10579000F5EEC07AF1EE10FACCF2E186B6EE007AC0
:1057A00077EE877AFDEEE77A17EE901A28462BF00F
:1057B000EEFBD4ED337A1FED317AF8EEE77A67EE3F
:1057C000877AF5EEC07AF1EE10FACCF2DC86B6EE0E
:1057D000007A77EE877AFDEEE77A17EE901A284680
:1057E0002BF0D5FBD4ED337A1FED3D7AF8EEE77A56
:1057F00067EE877AF5EEC07AF1EE10FACCF2D78632
:10580000B6EE007A77EE877AFDEEE77A17EE901A19
:1058100028462BF0BCFBD4ED337A1FED487AF8EE26
:10582000E77A67EE877AF5EEC07AF1EE10FACCF2FD
:10583000D286B6EE007A77EE877AFDEEE77A17EE3B
:10584000901A28462BF0A3FBD4ED337A1FED547A3F
:10585000F8EEE77A67EE877AF5EEC07AF1EE10FAA5
:10586000CCF2CD86B6EE007A77EE877AFDEEE77A57
:1058700017EE901A28462BF08AFBD4ED337A1FEDF1
:105880005F7AF8EEE77A67EE877AF5EEC07AF1EEA6
:1058900010FACCF2C886B6EE007A77EE877AFDEE83
:1058A000E77A17EE901A28462BF071FBD4ED337A85
:1058B0001FED6B7AF8EEE77A67EE877AF5EEC07A3D
:1058C000F1EE10FACCF2C386B6EE007A77EE877A64
:1058D000FDEEE77A17EE901A28462BF058FBD4ED30
:1058E000337A1FED767AF8EEE77A67EE877AF5EE8F
:1058F000C07AF1EE10FACCF2BE86B6EE007A77EE00
:10590000877AFDEEE77A17EE901A28462BF03FFBD8
:10591000D4ED337A1FED827AF8EEE77A67EE877A74
:10592000F5EEC07AF1EE10FACCF2B986B6EE007A56
:1059300077EE877AFDEEE77A17EE901A28462BF07D
:1059400026FBD4ED337A1FED8D7AF8EEE77A67EE19
:10595000877AF5EEC07AF1EE10FACCF2B486B6EEA4
:10596000007A77EE877AFDEEE77A17EE901A2846EE
:105970002BF00DFBD4ED337A1FED997AF8EEE77A30
:1059800067EE877AF5EEC07AF1EE10FACCF2AF86C8
:10599000B6EE007A77EE877AFDEEE77A17EE901A88
:1059A00028462BF0F4FAD4ED337A1FEDA47AF8EE02
:1059B000E77A67EE877AF5EEC07AF1EE10FACCF26C
:1059C000AA86B6EE007A77EE877AFDEEE77A17EED2
:1059D000901A28462BF0DBFAD4ED337A1FEDB07A1B
:1059E000F8EEE77A67EE877AF5EEC07AF1EE10FA14
:1059F000CCF2A586B6EE007A77EE877AFDEEE77AEE
:105A000017EE901A28462BF0C2FAD4ED337A1FED28
:105A1000BB7AF8EEE77A67EE877AF5EEC07AF1EEB8
:105A200010FACCF2A086B6EE007A77EE877AFDEE19
:105A3000E77A17EE901A28462BF0A9FAD4ED337ABC
:105A40001FEDC77AF8EEE77A67EE877AF5EEC07A4F
:105A5000F1EE10FACCF29B86B6EE007A77EE877AFA
:105A6000FDEEE77A17EE901A28462BF090FAD4ED67
:105A7000337A1FEDD27AF8EEE77A67EE877AF5EEA1
:105A8000C07AF1EE10FACCF29686B6EE007A77EE96
:105A9000877AFDEEE77A17EE901A28462BF077FA10
:105AA000D4ED337A1FEDDE7AF8EEE77A67EE877A87
:105AB000F5EEC07AF1EE10FACCF29186B6EE007AED
:105AC00077EE877AFDEEE77A17EE901A28462BF0EC
:105AD0005EFAD4ED337A1FEDE97AF8EEE77A67EEF5
